:20000000103F002005650000FDC90110FDC90110FDC90110FDC90110FDC90110FDC90110FD
:1C002000FDC90110FDC90110FDC90110FDC90110FDC90110FDC901103BCA0110A4
:20003C002DE9F04F0120ADF15C0DADF81A000827ADF8187006A806F0E1FD00263546DF4CBE
:20005C008DF854509DF81C006070A6700898E0614FF6FF70A082384607F01FFB5FEA00082D
:20007C000CD00121122207F0B1FE07F026FB15A90123D64A0091414606F0C4FC9DF85400BB
:20009C00DFF86C83324601232070414604F1A80006F09EF904F1CC0032460223414606F0C6
:2000BC0097F904F1F00032460423414606F090F9042031461022E07004F1480005F020FC9F
:2000DC0004F158003146102205F01AFC2562267266720720E67204F148021021A0720220E9
:2000FC0006F076FE04F158020320102106F070FE042004F12002014606F06AFE19E0A07882
:20011C00B4F84050B4F84230B4F84420B4F8461006280ED1ADF84250ADF84430ADF84620EF
:20013C00CC48ADF8481007F04BFF012010A905F0A5FB0A20ADF80A00ADF808704FF0FF3579
:20015C00039502A806F05AFD002840F0E38130460C90ADF824700925ADF8265009A806F0FD
:20017C004DFDDDF82C900028CDF8309040F0D281BDF82800102840F0C18160789DF82A102A
:20019C00884240F0BB814D4628884FF6FF71814200F0AC812B78A23B00F091812E3B40F01A
:2001BC00AD81A878B046002800F05E81801E00F03681401E012840F20B81801E00F0B98097
:2001DC00401E7FD0401E60D0083800F06981801E40F06B8194F83E30A888052BADF83400C1
:2001FC004BD001208DF83E009A4807F0E9FE94F83E00012820D004281ED003280DD00228F5
:20021C000BD00C98C188ADF836100189ADF838104189ADF83A1080892BE0B4F84000B4F833
:20023C004250ADF83600B4F84430ADF83850B4F84600ADF83A301CE0B4F84000E9888842C4
:20025C00D8BF081CADF836002989B4F842008842D8BF081CADF838006989B4F8440088423E
:20027C00D8BF081CADF83A00B4F84610A889814200DC0146ADF83C1001E08DF83E60B24ABE
:20029C000DA8122106F059FE0FE1B04807F098FE6878002840F00981E888E08228892083B0
:2002BC00688960836B4807F01FFD002840F0FD80A56A002D00F0F9802B68E08A218B628B78
:2002DC009847F2E0B5F804A00A2007F0E6F95FEA00080AD00121152207F078FDA8F808A0C8
:2002FC0007F0EBF9414607F003F8BA483146062205F006FBE68226836683A879607355486C
:20031C0007F05EFE914807F05BFE4FF001084FF6FF706379A0824BB9A879082814BF0420FF
:20033C000520A070404607F0C9FBBEE00320A070BBE06878002843D1A649281D02680A609B
:20035C00808888800623A3706889A082E889E082288A2083688A6083E878207394F83E0068
:20037C00012818BF022808D11F2006F0E3F94FF47A714143374806F0B9FB95F803B0B5F885
:20039C000AA0142007F089F95FEA000800F090800121142207F01AFD88F808B02D1DC8F8F1
:2003BC000C50A8F810A0042088F8120007F085F9814A414606F008FB7AE0C0460802002075
:2003DC00687831286AD12671042022E0DB7D00006878002862D1A878618AA278032813D00A
:2003FC002079657931B9012814BF6671267107E0D97A0000054303D0724806F077FBA27885
:20041C00072AE1D1062004E0062A06D0207910B90320A0704CE00220FBE70720F9E7687821
:20043C0000283BD1EB78A078E179ABB9022818D0072816D0062802D16179012911D10328FA
:20045C000FD0604807F050FC58B9012007F036FB07E0C046D40200205F4A404605F0AEFEA9
:20047C0068706878D0B920E06878B8B9564A0220102106F0C7FC554A0320102106F0C2FC7B
:20049C005648ED1C29680160AB888380544A01252846A179A57005F091FE48B1A77007E095
:2004BC00A888464A102106F02FFDB8F1010F25D1606A18B3016809B3A07888471EE06879DE
:2004DC0013281BD12889012808D1A07B022805D11E4807F075FD05F057FF0FE0052006F0E7
:2004FC0029F90146194806F001FB07E06888C00B04D3374A0420014606F084FC0C9848B1AC
:20051C00ADF810700320ADF81200CDF8149004A806F074FB208A65792179420831D320F0C6
:20053C00010055EA010320822BD08DB92D49207A8DF84A00657A8DF84B500A6813AB1A60F0
:20055C008988998007E0C0463B7F0000F802002003208DF84A00A07AE57A194A8DF85200EF
:20057C0006218DF853500DF14A0005F0DFFF616A30B1A77021B1086810B109683846884771
:20059C00208A810807D3184920F002002082304605F074F9208AC108FFF4CBAD20F0040053
:2005BC00A57B2082681E3FF4AAAD401E7FF4C1AD05F0EAFEBDE5C046A37D00005F7F00008B
:2005DC00537F0000B0020020500200206002002028020020400200208F02002034020020B4
:2005FC00700200203A020020460200202DE9FE4FE54980460122A1F130000260DF48076855
:20061C00002FFCD0DE4ADF4EC027E048E04B17603268920808D2324652F8042C03F1410484
:20063C00120C42F0F00222704FF0000A8346C1F800A0DFF864C3DBF80810D64D0191880E2B
:20065C0043D2480E41D3802018744FF6D802A3F8512018702868C0F30464162CA8BF203C70
:20067C001F460F3F387800F01F001628A8BF2038844223D0624602F1980EDA4ACEF800A06B
:20069C00261A022E05DC16F1020FB8BF6FF0010600E002263018166800F01F06844246F415
:2006BC00F856A7F866604FF001061660E8D11068374617601068CEF800601068284600689E
:2006DC00C0F30420162808DB06E0A5F1D0000068C0F30460162800DB203800EB2170401CF2
:2006FC00162805DA10F10A0FB8BF6FF0090000E01520DE4F00F01F0040F4F850A3F8590007
:20071C00386880083ABFEA48C0F800A041F04061019E6246A5F13804C80E8F0E80F0010043
:20073C0000F00100106087F0010000F0010090602068C0F38367C0F38F21B00C23D2304634
:20075C0040F3072000280BD542425046490805D17F0806BF0127391C4FF6FF71521EF5D126
:20077C00002810DD4FF6FF72490041F001018A4207D27F0047F001070F2F92BF01210F27CC
:20079C00111C401EF0D141EA0741182006F0B8FA2068D24E2768C94CA6F10409C0F3870173
:2007BC0007F0030041EA0021D9F8040040F2FF3253468FB22C21466800972746A7F14000EE
:2007DC00B0470C3D2868C0F30D011C2006F098FAB84955F8080C014000F07C4001431420E1
:2007FC0006F08EFA55F80C1C01F47C000904090C0143102006F084FA624955F8042C0968D6
:20081C00C2F30350C2F30345490813D2DBF800100B0510EB237003D41028A8BF0F2000E07B
:20083C005046090415EB217503D4102DA8BF0F2500E0554645EA001502F47F4002F0FF014E
:20085C00B8F1220F40EA054041EA000124BF02F0804211430C2006F053FA974DB8F1220FEF
:20087C0032BF01202868C0F30070B8F1220F4FEA400040F0200084F8090126BF2868C0F346
:20089C00407001208E4EB8F1200F40F0100084F8090138BF514606D33168C80C00F4407079
:2008BC00C1F384510143282006F02AFAB8F1200F26BF3068C0F301505046B8F1220F4FEAEB
:2008DC00400040F0600084F80C0126BF2868C0F3C0605046B8F1220F4FEAC00040F0800042
:2008FC0084F8010126BF2868C0F345505046B8F1200F4FEA800040F47C40A4F89C0138BF5A
:20091C0070490AD3306801038A15920501F47C1100F00F00114341EA0031082006F0F0F91B
:20093C004FF48000A5F1D0012060674A886D40F21E236FF31F40834216D90868030E13F0DF
:20095C000F0F03F00F01C0F3034018BF491E072805D006280EBF0720801C00F00F0041EA3A
:20097C000011A2F108000170DDF804C0CCF381477F1E13D07F1E3BD036E0C04694022243DF
:20099C0000600C40B03F005040100940AC3F00501562084088130050000020432846006899
:2009BC00810C21D24FF480412160D2F80210430AC0F3033703F0800321F08F010B4347EA6A
:2009DC000301C2F80210D2F80130060A66F30303C2F80130116800F0E70721F0E70147EA55
:2009FC00010004E02C2009404FF00040224610603B480068C0F3C0070FB94020A0624FF438
:200A1C000070206428684027C0F3C14040F0300084F8C800CCF3815050B3401E03D0401E55
:200A3C001FD002211EE0012006F08EFC06460420314605F059FA042006F086FC8642FAD18B
:200A5C002248066826F07F4006F054FBD9F81400036807214FF06022300E98474FF480600F
:200A7C0020600321042005F03FFA08E0000009400420012105F038FA154806F03BFB203DE0
:200A9C002868144947F6180600F03F0084F8CB0F144B0E80D9F800201868D16802208847E5
:200ABC0011480D4D076001212960BDE8FE8FC04694042A43FCFCFC008C13005040A00C4009
:200ADC009813005000803F400A600840A83F0050BD37860070B00C4094046042A401001042
:200AFC00B03F00502C20094000600C402DE9F04F08260127ADF15C0DADF8106004A8ADF842
:200B1C00127006F07BF8CF4C9DF814002070069804F12C050021A060284600F02BFACA49FF
:200B3C0041F28832042304F16C00E56005F050FC00251F200621656006F046F85020ADF805
:200B5C003E008DF84E70A846ADF83C8039468DF84F700DF14E02ADF842804FF44870ADF891
:200B7C0040004FF47A70ADF8440040F2053002F0E9FE40F2063002210FAA02F0E3FE4FF469
:200B9C0042701E2104F14D0202F0DCFE40F20730072104F11C0202F0D5FE4FF44470394659
:200BBC000DF14F0202F0CEFE40F2113002210DF13E0202F0C7FE40F21230022110AA02F03E
:200BDC00C1FE40F2133002210DF1420202F0BAFE4FF44570022111AA02F0B4FEC64903200A
:200BFC0005F0D4FE0620A02105F0EEFF0720A02105F0EAFF3046A02105F0E6FF0920A02188
:200C1C0005F0E2FFCDF83880B9468DF852804FF481608DF8509004218DF851900EAA8DF8BE
:200C3C00539005F0B7FF4FF48060394614AA05F0B1FF40F2024039460DF1510205F0AAFF23
:200C5C0040F2034039460DF1520205F0A3FF40F2064039460DF1530205F09CFF032006F0A8
:200C7C00EBF8042006F0E8F8B948BA4A132105F07FFD4FF0040AB84DADF81C602878ADF819
:200C9C001EA08000089007A805F0B8FF00280CBF099F4746B1488346876087B12B7843B167
:200CBC004FF6FF713F1F404627F8041F5B1EB870FAD1AB4A0BF11400112105F059FD022726
:200CDC008DF857A048468DF8557003238DF85400A4498DF856300DF1460740460A680979E8
:200CFC003A6015AA3971494604F06AF9484649460DF1550204F064F9022049460DF1560225
:200D1C0004F05EF9032049460DF1570204F058F9504605210DF1460204F052F904F11800D0
:200D3C00AF78CBF8040037BB04F1140095F801B095F803906862182006F0AFFC071C1AD0A0
:200D5C005146424606F062FF584606F03BFC387287F8099087F80A8005F14800F86005F1DF
:200D7C0058033B6105F120027A6106F0A6FC7E4A394605F029FE0C2006F08FFC071C0BD0C7
:200D9C000121524607F022F804F12400B86006F094FC394606F0ACFA0120102106F066F8F4
:200DBC000220102106F062F8704942F22F0006F023FB0A20ADF80200ADF800604FF0FF37F9
:200DDC000197684605F01AFF002840F0A88000200D90ADF828600927ADF82A700AA805F023
:200DFC000DFFDDF830800028CDF8348040F09280BDF82C004FF00109102855D120789DF8AE
:200E1C002E10884250D1454628884FF6FF7181421CD02878B02847D1687816280CD1688873
:200E3C00314606F00DFA38B9484606F0CFFA0D984FF00009206137E0297905F1080006F0C9
:200E5C0095FD31E0EC050020ED7B0000688800092AD3256945B36078B5F802B0401C60707B
:200E7C0095F804A0102006F018FC0835071C1BD00221152206F0AAFFA7F808B087F80AA027
:200E9C00FD6006F01AFC3A4A394605F09DFD0546162D09D0042D07D020694088002106F064
:200EBC00CFF9284606F092FA0D98002832D0B9F1000F2FD0404606F089FD2BE0E068054637
:200EDC0000F05CF8854208BF002702D0876806F071FD381C1ED03888401E0FD0401E10D15A
:200EFC00B87818B1801E0CD1022000E0002016A905F0D8FA05E0C046357F0000B87803F0F8
:200F1C00C3FDADF808600520ADF80A00039702A805F074FEE06800F035F80028CED0608856
:200F3C00C108FFF446AF20F00400608006F0A4FF02200DF1590105F0B5FA00287FF439AFB6
:200F5C00032001210DF1590204F03AF831E7C046F40900205084000008020020240B002029
:200F7C005C8400009E840000417F0000217F0000B17D0000DFF800F0F1B80110DFF800F07D
:200F9C000DBF0110DFF800F00FC1011000BF704708B5FFF7FBFFFEE738B50D4C0546A0680F
:200FBC0020B10C48B0F1FF3F00D080470A4800688047606810B1014628468847206800B1B3
:200FDC008047064800688047FFF7E2FF38BDC046E0110020FFFFFFFF041200200812002062
:040FFC0030BF70474B
:201000003C000000000000000000000034100000000000000000000001000000000000004F
:1C10200000000000000000000000000001000000000000000800000000000000AB
:20103C003400000000000000000000006810000000000000000000000100000000000000E7
:14105C00010000000000000000000000080000000000000077
:2010700030000000000000000000000098100000040000000000000001000000FFFFFFFF87
:10109000FF00000001000000080000000000000048
:2010A0002C0000000000000000000000C4100000040000000000000001000000FFFFFFFF2F
:0C10C000FFFFFFFF080000000000000020
:2010CC0038140000E410000095A1011091A70110A1C2011009B2011041B8011000000000EA
:0810EC00000000002F000000CD
:2010F400280000000000000000000000141100000000000000000000FFFFFFFF0000000093
:081114000800000000000000CB
:20111C00341400003011000065C2011069C101101BC2011091BA011000000000000000006D
:04113C002D00000082
:20114000341400005411000071C20110A5B6011099BF011045B601100000000000000000BD
:041160002E0000005D
:201164002400000000000000000000008011000000000000000000000000000008000000AE
:041184000000000067
:20118800240000000000000000000000A41100000000000000000000000000000800000066
:0411A8000000000043
:2011AC00240000000000000000000000C8110000000000000100000000000000080000001D
:0411CC00000000001F
:2011D0000000000014120020040000000000000000000000200000007010000030000000E5
:2011F0001C1100001C1200200400000000000000000000000C0000003013000018000000F9
:2012100040110000241200200400000000000000000000002400000048130000180000007C
:20123000000000002C12002004000000000000000000000010000000A01000002C00000050
:20125000CC100000341200200400000000000000000000002000000064110000240000007F
:20127000FFFFFFFF3C1200200400000000000000000000002800000088110000240000000B
:20129000FFFFFFFF44120020040000000000000000000000580000003C10000034000000F0
:2012B000FFFFFFFF4C12002004000000000000000000000010000000601300001800000005
:2012D000FFFFFFFF541200200400000000000000000000001C000000AC110000240000007B
:2012F000FFFFFFFF5C12002004000000000000000000000038000000F410000028000000EC
:20131000FFFFFFFF6412002004000000000000000000000054000000001000003C00000087
:1813300018000000000000000000000040130000080000000000000032
:1813480018000000000000000000000058130000080000000000000002
:18136000180000000000000000000000701300000800000000000000D2
:0813780001000000C084000028
:0413800006F0B4B807
:041384000100000064
:0413880000000E0053
:04138C0000000F004E
:041390003200000027
:041394000100000054
:0413980058110020C8
:04139C00000200004B
:0413A0000000000049
:0413A400FDC901106E
:0413A8000000000041
:0413AC00000000003D
:0413B0000800000031
:0413B4000000230012
:0413B800F00F002012
:0413BC00010000002C
:0413C0007011002088
:0413C400080000001D
:0413C8000000000021
:0413CC00000000001D
:0413D0000000000019
:0413D400080000000D
:0413D8000000000011
:0413DC00000000000D
:0413E0000100000008
:0413E400881000204D
:0413E80006000000FB
:0413EC0001000000FC
:0413F000580F002072
:0413F40000000000F5
:0413F80000000000F1
:0413FC0000020000EB
:0414000000000000E8
:0214040070472F
:021406002900BB
:021408000100E1
:02140A002500BB
:02140C002D00B1
:02140E002E00AE
:021410002F00AB
:021412000100D7
:0114140001D6
:081418000300000074840000D1
:081420000000000000000000C4
:0414280000000100BF
:04142C0000000300B9
:0414300083C4011060
:041434003C14000064
:041438003C14000060
:04143C0000000000AC
:041440009000000018
:041444009000000014
:0414480000000000A0
:04144C0070110020FB
:04145000637C0000B9
:041454002000000074
:041458003C840000D0
:04145C00E883000021
:0414600009C30110AB
:0414640017750000F8
:04146800F776000013
:04146C0095C801100E
:0414700097C8011008
:041474000000000074
:04147800E783000006
:04147C0020830000C9
:0414800038830000AD
:0414840008830000D9
:0214880008005A
:02148A00090057
:02148C0001005D
:02148E0000005C
:01149000015A
:041494000000000054
:041498000000000050
:04149C00000000004C
:0414A0000000000048
:0414A400E57F0000E0
:0414A800416B000094
:0414AC007176000055
:0414B000BD6E00000D
:0414B4001F700000A5
:0414B8009566000035
:0414BC00F15A0000E1
:0414C000F77D0000B4
:0414C400D5600000EF
:0414C8000DC801103A
:0414CC001DC8011026
:0414D0000800000010
:0414D40024000000F0
:0414D80018000000F8
:0414DC0028000000E4
:0414E00020000000E8
:0414E4003C000000C8
:0414E8000C000000F4
:0414EC0034000000C8
:2014F00021B1C968814201D1012070470020704738B5054606F04AFD2C680CB121682960BD
:2015100006F044FE204632BDF8B506460F46346800201546386034B906F038FD376095B13C
:20153000012129700FE005B1287006F02FFD00E0246821680029FBD1BC4203D106F026FEAB
:201550000020F2BD276006F021FE0120F2BDF8B50C68054606F01AFD0026074634B100F07F
:2015700009F800B126462468002CF8D101F083F83046F2BD21462846B2E700213022DFF873
:20159000340C4A43104490F82F20130603D5491C0829F3D3002070472DE9F8438046894639
:2015B000164600273021DFF80C0C7943441804F12C05B5F90000484508D1214600F035F981
:2015D00020B1300008D0E878304205D17F1C082FE8D30020BDE8F2832046FBE738B5042852
:2015F0001BD1DFF8E04A04F1E405284606F03AFB98B12846FFF7BCFEDFF8BC1B0A6850435D
:20161000B0F5967F09D2284606F0BCFC052005F0A7FD0120E07701F003F9002032BD70B5B2
:2016300000F026FADFF8945B064695F8340020EA040485F834400024286820B19C3006F06D
:2016500011FB00B10124686820B19C3006F00AFB04431FD195F83400002808BF002C19D133
:20167000A86AD0B190F820108A0707D5C46900F032FBA86A00220221A04708E0446900F095
:201690002AFBA86A00224FF400030021A0470020A86270BD304601F04FBD70BDF8B50023CC
:2016B0009E460AB94FF0010E002600291CBF8D6A002D6FF05047DFF804CB19D0446ABCB137
:2016D000C968C368994207D0DCF8003099420CBFDCF80860DCF80C60A408A4EB9504A61B31
:2016F000BE4229DA06F18056B6F1805F24D90123002A1CBF546A002C1BD0816AC9B1D268EA
:20171000C0680026904207D0DCF8000082420CBFDCF80860DCF80C60C6EB9406A6EB910670
:20173000BE4209DA06F18056B6F1805F04D94FF0010E03EA0E00F2BD0020F2BD884201D321
:2017500000207047012901D101207047022070472DE9F047DFF86C790E46B96A8046FFF7B9
:20177000BFFE002400254FF0010948B1B86A90F82E003146FFF7E2FFA146040018BFBD6A02
:20179000786AB0B1D7F824A010E0514600F04DF850B19AF82E003146FFF7D0FF4FF0000962
:2017B00008B10CB955460446DAF800A0BAF1000FEBD1B9F1000F18BF022034D1002C18BF14
:2017D000002D2FD0B86A2E4686420CD1B96A00F02CF840B1B86A90F82F1041F0080180F8CF
:2017F0002F107E6A5EB1314600F01FF828B196F82F0040F0080086F82F003668F2E7DFF85C
:20181000BC0900F13201C0F82880C0F82C8004F001048A7842F001028A70AA8D02860C70A6
:20183000012000E00020BDE8F087404658E62DE9F04F8DB00446DDF85880DFF83C7B002060
:20185000787388F80000894693469A46FFF795FE050042D001F0F3FAA8853868A04205D182
:20187000387BC10744BF00F0FE003873DAF80000A8629BF80C0000F00F0002280CBFDBF8FF
:2018900008000020B9F1000F686222D009F19C0006F0E8F9002857D101F04AFA040021D1B3
:2018B000706AF8B101F049FA0A90B06A20B1726AB16A00F055F838B9B06A98B9726A6946C1
:2018D0002846FFF7EBFE68B1706A286075620120787328460DB0BDE8F08F012088F800005D
:2018F0000020F7E7787B0028F3D114B9746A00E024685CB3226800F032F80028F8D02068B9
:20191000286025600220E3E7787B0028E1D1746A24B100E0246820680028FBD19BF80C10A7
:2019300001F08F010229D4D12CB1002200F017F80028CED108E0B06A0028CAD0B16A002280
:2019500000F00EF80028C4D10220C7E79AF804104846FFF7FDFE0128D6D10420B8E72146D5
:2019700028469BE670B5002005F0CEFEDFF854670FF22D51002200F067FED6E9004506F0E0
:2019900023F9844231BF041B401E041B641C307EDFF8E859240BF46000281CBF697D0129ED
:2019B00003D0307CC002A0422BD20121317600206875DFF8CC0901680A0622D540F60900D6
:2019D00028800021687B696000F0AAFC6873287B00F0F000287306F0D9FADFF8A8194A69DF
:2019F00022F002024A616FF002020A610D600B699C07FCD50A614A6942F002024A6106F0FE
:201A1000C5FB0020C6E90000F06004F02FFF287D20B9F16B01F1400006F0CCFADFF8201CDA
:201A30000020086070BD10B500F022F8DFF858190A7814430C7006F0A9FB832010BD70B546
:201A500000F016F80646DFF840090178012559B1027822EA04040470007820B90821DFF810
:201A7000E40B06F0AFFA832500F035F9284670BD044606F08BBA10B50446207B00F00F0039
:201A900002281DD101F059F9A168081ADFF83416C96B8008002914BFC96840F6C41101F5A5
:201AB0007A72824238BFB0F1405F09D2401ADFF808170A68B0FBF2F0012802D8012010BD14
:201AD000002010BDDFF8FC250146906A00B9704710B5906A90F82F00C3061CD5506AD0B1F5
:201AF000506A90F82F00C30615D4906AC068536ADC68A0420FD111B1012908D010BDBDE898
:201B100010404FF4004102F1440006F05BBA916A11630020906210BD70B5DFF8A865746A6A
:201B30000120FFF7CFFFB16A002944D1002C3BD0E068F16B884218BF4FF4806135D1A068A9
:201B5000FFF799FF050015D0306B98B90120FFF776FF83282FD1F06B783006F013FA06F1DD
:201B7000E4042946204606F009FA2046BDE8704006F006BAD4E90401DFF808285369034363
:201B900053610020D3680B43D360D061A0681060D0690028FCD006F12400FFF7A9FCB06207
:201BB0000020BDE870408DE7022106F14400BDE8704006F007BA70BDDFF80805C16B8A6893
:201BD00001F12803506830B1984218BF0246F9D101E000207047507B10F00F0F02BF488D45
:201BF00040F609018842F4D1012070472DE97043DFF8B00BDFF8CC5405F042FF0446DFF885
:201C1000A80B01680668A86A06F4602668B1214089060AD5E862D0E9068949EA0403C0E93B
:201C300006834FF4005100F0DDF834400BD0DFF8EC0B81690C43846105F19400BDE8704395
:201C5000002106F0BFB9BDE8708370B506F09EF9DFF8C84B0646A06910F4602F2FD0A569BC
:201C7000ED012D0EE80748BF002506D4A80748BF012502D4680748BF0225681D002140B24F
:201C900000F06CFEA169012205F1110082409143A16100F020F804EB8506F06838B154F8FF
:201CB0002500691DF56800224FF00063A847DFF8F81A086828B90220FFF7C1FE01E000F077
:201CD0000AF8A06930B1BDE870400021DFF8D40C06F078B970BD304606F058BAF8B5DFF885
:201CF000E45305F0C1FEAC6A002C024677D0100704D490075FD5286B00285CD10021A9624A
:201D1000D4E90401236A40F00A0632401A432262D4E906673243C4E90627DFF88C6AB26871
:201D30008243B2603268D4E904018A4332602146002205F13400FFF7E7FB022100F052F819
:201D5000286B00284BD0E168286BC268914246D1286B90F82F0094F82F10084310F0070046
:201D700018D0C10701D4810707D5286B90F82F1041F0010180F82F1005E0296B91F82F20D5
:201D9000104381F82F000022296B05F13400FFF7BBFB0DE0286BA8622A6BB368D2E90401B2
:201DB0000343B3602A6B3368D2E904010B43336000222A6313E0D4E9040102420FD0EC6214
:201DD000D4E90401236A02401A432262D4E906011043C4E906014FF4804100F003F8BDE822
:201DF000F14099E605F1440006F0ECB8B548B0F93810B0F93A00814204BF0120FFF71FBE04
:201E100070470720FFF70BBCF8B506460F46D6F868C014461D46BCF1000F18BFE047D6E99D
:201E3000180104400D400020854208BF844217D0802239463046FFF7AFFBC6E91C4538B15D
:201E5000D0E90623A243AB43C0E90623B16E41600020B06606F14000BDE8F24006F0AAB88F
:201E7000F1BD704780B506F0ABF8964A0146D06B126CBDE80840104780B592480FF20D528C
:201E9000016C914206D10120FFF7CDFDBDE8024000F0CBBCBDE804400421443006F092B81A
:201EB00070B584B005F0E0FD864D0FF2E1410446286C884222D10022DFF8841BDFF85C6922
:201ED00005F1780006F068F80120FFF7ACFD012068764FF6FF710020A876B08B884208D19E
:201EF0000221ADF80010684605F022FBBDF80800B083FFF761FE08B9FFF70EFEDFF83C0C13
:201F1000044203D04FF00051FFF76CFF7FBD80B505F0AAFD800707D5BDE804404FF480513A
:201F3000DFF8200706F04EB801BD10B5654C0146E06B4268506838B1012908BF05F020FA86
:201F5000E06B416848688047E06B42689068002804BFD168002914D0DFF8901B08680028CE
:201F7000FAD000230B60906800B18047E06B4068C06800B18047BDE81040DFF8B00C05F079
:201F9000D7BA10BD70B54F4D6C6B002C7DD0A168202000291CBFC2B2002A7CD00A8840F6C3
:201FB00003039A421FBF40F604039A424968401EEFD16BE000224FF0804304E000224FF0B5
:201FD000805300E0002394F82F00010706D594F82F0010F0070F18BF43F08073B4F92C10C6
:201FF000E0686668B04705F0D1FF0646688F401CC0F30B0068870020696B81F82F0005F121
:202010003400FFF775FAFFF766FEB5F93A00B5F93810884239D1E26892F8C210052001B18E
:202030000720FFF7FCFA6548E3680268934208BF426893F8C200002100B91968002583F88D
:20205000C2504AB192F8C20010B182F8C25003E01068884228BF014619B9BDE8704001202F
:20207000EDE411F1010F10D053480268E068B1FBF2F1012998BF0121783005F07FFFE068AB
:20209000BDE87040783005F07BBF70BDE0681822283003F0FDF9226A0020206260680028F6
:2020B000A1D094F82F1001F00701012906D002293FF480AF04293FF481AF83E700224FF0F3
:2020D000005380E7881C002038B50D46A807DFF8604B18D5FFF756FF606B25F0020510B121
:2020F00045F0020109E0680702D4606A00285FD004F1E40005F046FF042104F14400BDE833
:20211000344005F05FBF680752D5012084F82000042005F025F805F057FDC4E90001606ADE
:2021300078B1C568E06B002818BFA84208D095F82000410704D5EB69002204212846984777
:20215000E563E06B4168DFF8EC0A0A780260022005F006F8112002F0F7FF0120A076E06BD2
:20217000017C002919BF207E00280E2002F0ECFFE06B844A40688168002904BFC06800281A
:2021900004D00021D161DFF8A40B106040F2FF70DFF8AC14086000219161DFF8B00C50611B
:2021B0000FF21D0020641920BDE8324005F0F0BE31BD0000081B0020001F00206C1E002060
:2021D0002DE9F0430546880085B040F195800020FFF7ABFE6B4EDFF8AC0BDFF8549A674FD7
:2021F0000021F161306040F60A08012005F08CFA0FF29910C9F84000A7F800800020788006
:202210000021387B00F0F00038737960787B00F087F87873AA681446618099F8181009B169
:20223000687CA0B1108840F60201884218BFB0F5C15F05D1218A4FF60F400140218204E045
:20225000218B4FF60F4001402183002068746946104602F0E5FD684605F034FD40F6040165
:2022700040F60302606800281CBF0388434518BF934244D08B4218BF0446F3D13FE0288DEF
:20229000A8B100216985E96205F134004278017802F0F00201F0F00142F001020170427000
:2022B00005F128007860787B00F0F00078734FF6FF30A9680A8A02400A82F0690028FCD026
:2022D0000021F16199F81F00012806D104F0ECFA0028FBD005F06AFE0CE0012005F03AF86D
:2022F000012807D0607B00F01BF860730FF23D00C9F84000A868306005B0BDE8F0836760AA
:20231000607B00F0F0006073D9F8240080680088904218BF8842B2D10020C9E90000C6E745
:2023300000F0F00040F0010070470000DFF8202B114200D17047012010B505F00BF80128C1
:20235000DFF8EC4806D10FF245010C4821640D49086010BDDFF8582C10683221B1FBF0F12D
:20237000012998BF0121E434204605F007FE2046BDE8104005F004BE941E0020C41E00204C
:202390000000044000100440DA1E00202DE9F84F07460C466004DFF898681FD505F0F6FD6A
:2023B000F56A0146A5B12F6AB80711D400202862084605F0EBFE6868002818BF002F0AD026
:2023D000B5F92C10E8686D683A460023A84702E0084605F0DBFE24F4804427E1A0006FF467
:2023F000807940F6020557D596F8200028B1042004F0DAFC002086F8200005F0C7FD8046B9
:20241000B8680188A94218BFB1F5C15F00F026F9D6E900AB0020834508BF824521D0042077
:2024300004F098FFE8B1D6E9005105F0CDFB854231BF451B401E451B6D1C788AF96800EBEF
:2024500015308842F86002D209184908F96040F2D171F868A0F5FA70884224BF40F6C411DB
:20247000F96000F0F7FCFFF7A7FB58B1BD6900F0EFF8A847706A18B1192005F08BFD01E049
:2024900044F002047D6900224FF0806300213846A84724F00054C9E0A00709D5FFF772FD3F
:2024B000706B002824F0020401D044F00204BDE060051CD505F06AFD756A074695B1F06BC8
:2024D00010B1783005F05EFDE868F06300F0D3F805F07AFBB0604FF400610FF2A110306471
:2024F00000F006FB0020707724F480649EE020073ED5707F012802D10021717735E0B06AFD
:2025100098BB0120F0760021DFF8AC0B71763064FFF728FA022004F047FC112002F0B6FD60
:20253000F16B087C10B90E2002F0B0FDF07F012804D10021F177052004F036FC0020F0764E
:202550003077DFF8780B0178012904D100220270042100F0CDFAB6F93A10B6F93820022060
:20257000914208BF0720FFF75AF824F008045DE0A0040FD5F56A002D1CBF6868002806D028
:20259000B5F92C10E8686D6800222023A84724F400544BE0E00438D5FFF70EFB20B1D7F8A1
:2025B00018C000F055F8E0470022DFF8941400F04BF80020B07701207076B8680188A94219
:2025D00018BFB1F5C15F00F049F800207874B56805F0FAFADFF86825F36B17680421BB42A8
:2025F00008BF00214DB1854231BF451B401E451B6D1C02F108002D0B45500020B06024F477
:202610008054192005F0C6FC10E020040ED5B06A816848880028FAD0B16A8868418801292C
:20263000F5D0192005F0B6FC24F4004434B1214606F14400BDE8F44F05F0C4BCBDE8F18F80
:2026500000000460CC1C002006F1780005F0A4BC00224FF0007349463846704705D1028A40
:202670002D2161F3091202827047028B2D2161F3091202837047384605F088BDF0B5044625
:20269000080585B07BD5DFF8A865002070760120B077F06B90F820104A0703D5C3690022DC
:2026B000042198470022DFF8F81ADFF8F85AFFF7CBFFDFF8E40B3064F06B406881680029A3
:2026D00004BFC068002804D00021E961DFF85C0628600120FFF729FC0020E86140F60202F8
:2026F000DFF8A00628600020A16848800888904218BFB0F5C15F05D10A8A4FF60F40024096
:202710000A8204E00A8B4FF60F4002400A830120607440F6040240F6030340F60A0C4868D8
:2027300078B3078867451CBF9F42974229D00146F5E7208DA8B100226285E26204F13400F6
:202750004378027803F0F00302F0F00243F001030270437004F128004860487B00F0F000A6
:2027700048736946A06802F05BFB684605F0AAFAE8690028FCD00021E961A068286005B053
:20279000F0BD00204860487BFFF7CAFD4873706A80680088984218BF9042CAD10020B060E1
:2027B000DFE7000020000E000C10044038B5DFF88044A16A61BB606A78B3617E29B1012037
:2027D000FFF731F9BDE832402FE0A07E28BB05F0DDFB0546606A8068FFF74DF9E17E21B16B
:2027F000DFF8D828012010700DE040B1E4340146204605F0C3FB204605F0C2FB03E0A07FE1
:2028100008B900F00DF82846BDE8324005F0BEBCBDE832400020FFF755B931BDA41E0020F3
:20283000042104F1440005F0CDBB192005F0B2BB30B585B002F020F8DFF8880BDFF8884BDA
:202850000168DFF8EC5341F002010160684605F049FAA078DFF8741B02906A4605F1440074
:2028700004F05EF8684605F00DFA2178DFF8D42B019100208DF808006B46192105F178004D
:2028900003F020FF684605F02DFAE078DFF8B81B02906A4605F1940004F042F8684605F0AD
:2028B000F1F901208DF808006B466078DFF89C2B01901A2105F1C80003F004FF0023002284
:2028D000DFF88C1B05F1E40003F040FDDFF8E807DFF8802B28640023042105F5847004F062
:2028F0003BFEDFF8740B4FF6FF7181830021C177C5E9001129766983E96185F820100520C1
:2029100028740020DFF8541B08704FF4FA718C488160C16005B030BD10B5818B4FF6FF7280
:20293000914209D00024012202FA04F3194206D1641C64B20F2CF7DB6FF0010010BD9943C3
:20295000818304F10C00DFF8C81B0B6882401A430A600220FFF767F8204610BD70B5064691
:202970000C4605F013FBDFF8F01A0546C87F420702D58A7F964214D001228B8B02FA06F06F
:202990000343DFF88C0B8B830C36016802FA06F621EA06060660006818B914B10220FFF72F
:2029B0004EF8C8E31C1D00202DE9F041DFF82C6C0546706A0C460027844290461AD1FEF7ED
:2029D000D9FD18B394F82F0040F0040084F82F007F1C06F12400FEF78BFD0022214606F1F9
:2029F0003400FEF791FD746A5FEA0800E7D13846BDE8F081716A31B1086820B10A68A24241
:202A100001D00968F7E70C4600E02468002CEED02168FEF7B0FD0028F7D0216891F82F0083
:202A300040F0040081F82F0006F134000A6822607F1C0022FEF768FD5FEA0800E8D1D6E7AD
:202A5000ED1C00002DE9F0478246894602F001040327550805F09AFA19F1010F05F001055D
:202A70008046734E08D1B16A5046FEF739FD00280CBF706AB06A04E0002249465046FEF703
:202A90008BFD70B390F82F100A0629D5B16A884215D190F82F100122A240114380F82F1004
:202AB000002C14BFDFF8380BDFF8380B04F040FDA5B1716A2A465046FFF776FF0EE00146CB
:202AD0002A465046FFF770FF50B106F1E40005F059FAB07E10B9022100F00AF8832700E0C1
:202AF000042700F0B7F93846BDE8F0871C10044006F1440005F066BA70B504460D4605F0EA
:202B100045FA0646DFF8D40AC16B8C4201D0032070BD407E01280DD1284604F009FD0446D3
:202B3000FFF7D9F804F0FF04012C01D1812070BD022070BDFFF7CFF8012070BD020000405E
:202B50006C1E0020F0B50646DFF89C0A8BB015460029006818BF002D1C4663D00A78D040FB
:202B7000C0075FD571602846002102F0C5F9B56005F00CFADFF8747A0546387D02284FDA12
:202B900008B9FFF755FE387DDFF8641A41F82060401C387500F008FB34B903A80FF6882116
:202BB0001C2202F075FC03AC2068DFF8481A30600A466068F0600B46207C3074A0693062D0
:202BD00001207074608A7082E06800B10246B261606900B10146F161A06800B103467361C7
:202BF000A02106F1280002F08DFE002106F1400004F0DCFB684605F08FF902966B460022AF
:202C1000DFF8F41906F1780003F0A0FB6B460022DFF8E81906F19C0003F098FB304602E0A7
:202C300000F0C2FA00200BB0F0BD000001000706881C0020D0210840F8B5DFF8B05904466E
:202C5000287D002871D0DFF89469B6F93800B6F93A10884211D000F06BF828B9B16A204642
:202C7000FEF73EFC48B1B06A38B1B0F92C1000224FF0E043204600F0A4F905F087F90746FB
:202C9000DFF86C0901688C4207BF0021016000214160287D401E2875C0B288BB707EF463FD
:202CB00001280FD1FEF7CBFE0220FEF7C8FEFFF7E2FC4FF0FF3104F1400004F0C1FF05F03F
:202CD00065F9074606F1440005F076F906F1780005F05AF906F1940005F06EF906F1C8003D
:202CF00005F052F906F1E40005F046F906F5847004F03AFD207C012804BF0E2002F0C6F9F4
:202D1000F06BA04204BF0020F063FFF7B4FC04F1400005F04DF904F1780005F02DF904F19D
:202D30009C00BDE8F24005F027B9F1BD5100070606F124012046FEF70ABC70B505F026F9B9
:202D5000DFF89828517E29B1DFF8B428146805F01DFA14E005F01AFA04F036FF10F500308D
:202D7000DFF8A028DFF8846841F10001A2FB004502FB01553169002024184D412C4620461D
:202D900070BD000001010E042DE9F04782B082460F4691461D4605F0F9F88046FEF7EDFB83
:202DB000040046D00AF1780005F0ECF800F047F83087A760202104F12E0787F80090656071
:202DD000308FA085C4F80CA0DDE90A52DFF8380828401140C4E904016A4600207870C4E98E
:202DF0000600214606F12400FEF78EFB08B30AF1C000A18D018000218170787840F08000E6
:202E100078709DF80000012809D1317F00291CBF707E002803D0012100207177307700F0C4
:202E300019F89DF8000008B1FFF7C0FCB4F92C0003E000F00FF86FF00100BDE8F687DFF865
:202E50009C67308F401CC0F30B0070470A00004004000020404605F099B92DE9FE4FDFF85A
:202E7000906780460F4614469A4605F08FF831688146884508BF716801A8029400903A465E
:202E9000029B4046FEF7D3FC040006F1320000900ED18178C6F8288041F00401817000F029
:202EB0003BFA9DF8040002285FD16FF002007DE008F1780005F066F8DFF82057A08D28872E
:202ED000A76004F12E0702980179DFF83C073970C4F804A0C4F80C80DDE90CAB20210AEA80
:202EF00000000BEA0101C4E9040100207870C4E9060002984179012903D1787840F01000DC
:202F1000787000F009FA0098C178042905D10278B6F93010F06A00F01AF905F037F8814641
:202F30000098C078022808F1C00602D100F042F829E0012809D105F1E40005F023F800F0E5
:202F500039F8A86AF8B900F0E7F90098C078002818BF042826D10DF10502214605F1240025
:202F7000FEF7D2FA20B900F0D7F96FF001001DE0A08D30800021787840F080007870B170E3
:202F90009DF8050010B900F0C7F90DE0297F00291CBF687E002803D00121697700202877D3
:202FB00000F0BAF9FFF702FCB4F92C00BDE8FE8F001F0020787840F0800078700021B17056
:202FD00070472DE9F0410C46002C054616461F4601D500201DE004F0F1FF804680222146B3
:202FF0002846FEF7D9FA040003D094F82F00010602D400F042F80BE094F82F0010F00F0F2E
:2030100009D000F03AF894F82F0010F00F0FFAD1022000212FE0D4E9060146F00A06304035
:2030300039400022914208BF904210D000F025F8D4E9060130403940C5E91C01D4E906232E
:2030500022EA000023EA0101C4E9060111E06168DFF8B805814202D06168A9666060C5E968
:20307000186700F00AF84FF0FF3105F1400004F0E7FDD5E91C01BDE8F081404605F082B8AC
:20309000DCB500F01DF808BFDFF880352046FFF77BFE08E0DCB500F013F808BFDFF86C35AF
:2030B0002046FFF7DAFE0146204602B0BDE8D04000224FF0E04384E7D9200000DB1E0020B7
:2030D000DDE906670446CDE900671800704770B5FEF7CEFC0546DFF81415DFF800650120EB
:2030F000487504F19C0004F04DFF00F029F804BF707E00280CD1DFF8F81491F8340038B1E2
:2031100000F052F80720FEF78AFA04F03FFF054600F016F80CD104F1780004F033FF0120B9
:20313000FEF78DFC707E012805D10121317702E0012084F8C2002846BDE8704005F026B873
:20315000B6F93A00B6F93810884270477AE442F0020277E40FF2D0411C2202F099B900E09B
:2031700000BF0022C8E470B5DFF87014CA6B90426FF07F0412D1487E80B104F007FF05462A
:20319000DFF88C0404F0D4F9064600F00DF806F0FF00012802D13602301670BD204670BD87
:2031B0001F1F000000100440284604F0EFBF00002DE9F0410E461446832504F0E7FE032EB6
:2031D0008046DFF8187465D8DFE806F002071114B86A50B1B96A888D05E09F48808B4FF617
:2031F000FF71884201D0208055E0802553E0787E207050E024685021204602F083FB00215D
:20321000DFF8EC23080152F82130235004F10C0E0C234B431344491C1E7E0EF80060261DD4
:20323000D3F814C046F800C001291B699C4404F1080343F800C0E5DDB86AA0B1BA6AD368C4
:203250000801491C235049B2BA6A92F82E3004F10C021354BA6A536A221D1350BA6A936A68
:2032700004F108021350786AA8B1042913DC0A01C368A35004F10C0790F82E30BB54271D1B
:20329000436ABB5004F10807836ABB50491C006849B2E9E7032536E19D23000080B58022FC
:2032B000FEF77AF900B1806802BD2DE9F8430446CA480D46417E807F01431E4608BF6FF0B2
:2032D000010027D00A2129806A60DFF88C814046FFF722FB0746781F03281AD2AF7004F0BD
:2032F00055FE8146284604F023F9054600F014F805F0FF05012D06D108EB870040F8086CBB
:2033100040F8144C05E001213846FFF727FB6FF001073846BDE8F283484604F037BF2DE9DB
:20333000F8430446AD480E46417E807F0143904608BF6FF0010038D0474F3846FFF7ECFAB8
:203350000546681F03282FD204F020FE2A02814602F4706216434FF6FC703040AD490843D7
:2033700004F0E6F800F0FF00012815D1F0040CD5A94901230A6805F10C0083409A430A6004
:20339000BD77F87F40F00400F87707EB850040F8144C40F8088C05E001212846FFF7DEFAB1
:2033B0006FF00105FFF7B8FF2846BDE8F28310B54FF6FC742140BDE81040984B0022194332
:2033D000FFF79ABB00200940A3840000751E000070B582480C46417E807F014301D1012039
:2033F00070BD1D48C17F4A0707D5837F9C4204D101F0FB01C1770021817704F0C7FD0546C8
:2034100001212046FFF7AAFA4FF6FC7000EA042040F0816040F0010004F08AF806467E48F1
:20343000012201680C3402FA04F421EA04040460FFF7BAFE06F0FF06012E01D1812070BDCD
:20345000022070BDB11E00005B1C0000FD1B0000891E0000ED150000A41E0020DA1E00200C
:203470002DE9F04107460C46154604F08FFD5B4EB17E8046707E0143F07E0143062C41D8AE
:20349000DFE804F004070D10131F2D002868386036E001207874F8686030F86030E02868A7
:2034B00078822DE0286830742AE0286818B98020FEF7B9FA24E0012824D18020FEF7BFFA9E
:2034D0001EE0002904BF706A00280DD12968192004F064FD29681A2004F060FD10E00029BE
:2034F00004BF706A002801D000250CE0296806F1440004F069FD296806F1940004F064FD7E
:20351000832500E00325FFF7A5FC2846BDE8F0810C1004402DE9F84F0E46814630684FEA27
:20353000900A3F48824502D2307A022801D003202DE004F02BFD2E4C8046606800278145D9
:2035500008BF012787F0010054F82050B9F1000F04F1320B04D009F19C0004F083FB58B960
:20357000BDB105F19C0004F07DFB28B902212846FEF7EEF805000DD19BF80200C4F8289096
:2035900040F002008BF80200FFF764FC0020BDE8F28F02250C204743E01931680161317A4C
:2035B000017620480168BAFBF1F1012998BF012109F19C0004F0E2FC09F19C0004F0E0FCAB
:2035D000FFF748FC012D06D19BF80020B4F93010E06AFFF7BCFD8320D9E70000881C0020DC
:2035F0000100020401000104D4210840C41E00206C1E0020731E0000FD1D0000131E0000E9
:203610000430044000093D00FDEFFF9F191E000001000304010003060810044001000406A2
:2036300041420F00001F0020FFFFFFFFC4090000000000000000000001003A0100000000A4
:2036500000000000BA482DE9F84F0025B94CB749056094F8E200002800F06381012800F0E9
:203670002F81B54E02283CD0032840F05A8151F8250CD4F8B8100029A0F5C060C4F8D4009F
:20369000B8BF49420028B8BF4042814226DA4FF08057D7F8A4014568B4F8BC0030214FF401
:2036B0007F42082300903046A847D7F8A4014568B4F8C00004214FF4F802122300903046EF
:2036D000A847D7F8A401B4F8D070456820214FF440620A2330460097A847012584F8D850C5
:2036F0001AE151F8258C04F0A9FB2F4600B901273946924F38680028FCD0B146012609F1CB
:203710000409D9F82CA03E6009B104F09DFBCAF30720C4F8BC0004F091FBAA4600B9B2468E
:203730003B68002BFCD0D9F800B0BAF1000F3E6001D004F089FBCBF38440C4F8C00004F0CB
:203750007DFBAA4600B9B2463B68002BFCD0D9F81C90BAF1000F3E6001D004F075FBC9F3E0
:203770008120C4F8D000B8F5C061C4F8B81000F09C8094F8D80068B9C4F8D410D4F8C000FD
:20379000C4F8C800D4F8BC70C4F8C470D4F8D030C4F8CC30D4F8D410D4F8BC30002954BF85
:2037B00002206FF0010004F1C802176801EB41014018411000EB917107EBA1001060D4F8A6
:2037D000C810C4F8C43000291CDD1E293CDDD4F8CC0030B93429B4BF15391E21C4F8C8105D
:2037F00025E02A29BABFD4F8C8000B381E20C4F8C800D4F8C4003F28B4BF401C3F20C4F86E
:20381000C4001FE0D4F8CC00032812D011F10B0FC6BFD4F8C8000B30301CC4F8C800D4F824
:20383000C4000028C4BF401E051CC4F8C450032508E011F1150FC6BFD4F8C8001530301CDA
:20385000C4F8C800C4F8CC504FF08057D7F8A401B4F8C43030214FF47F42456836480093BF
:203870000823A847D7F8A40104214FF400321123456831480096A847B4F8C860D7F8A401E9
:2038900004214FF4F802122345682B480096A847D7F8A40120214FF440620A23B4F8CC603D
:2038B000456825480096A84701E084F8D85040F2FF50404502D8801C40452DD208202EE09E
:2038D00051F8251C1E4F4BF2F5204843060A3868C0F3814001280AD103F016FE02F0A8FF3C
:2038F00004F0B8FA3111C010484306EBE03694F8E50030B91348006820F07F40801946089B
:2039100001E084F8E5501048310C0660012741600E4D8760287808B90B2000E0052084F8F2
:20393000E40000F037FDBDE8F88FC0462D400C402C500C405C0D002000A00C4000800C407B
:20395000B43F0050102009403C600C4021840000F8B5A0F2013517460E46022D40F21481F2
:203970008A4A8B498B4B2D1F0F2D04D9143D4AD0AD1E1CD011E0DFE815F0C300BC00F40002
:20399000E400B300AB000701A2009A00100010009200880079006F006300282880F2F480D6
:2039B000022E40F0F180398803F014F9F8BD012E40F0EA8015462879012800F0E5805179A3
:2039D0003878507181B9002800F0DE809078012800F0A980042800F0A680062800F0A380E9
:2039F000052800F0A080F8BD3878002840F0CC809078032800F0A280072800F09F800528C1
:203A100000F09C80F8BD012E40F0BE803878012840F0BA80154605F1F00004F06BF9002834
:203A300040F0B2802C46002004F13E0101F02CFF002840F0A98004F1CC0004F0C7FAF8BD86
:203A5000022E40F0A18038880A28C0F29D80B0F5486F00F3998015E0022E40F09580388882
:203A7000B0F5FA7F80F290800880F8BD022E40F08B8038880628C0F28780B0F5486F00F3F8
:203A900083801946891C0D4638E0022E7CD13888062879DBB0F5486F76DC1946F3E7012ECF
:203AB00072D1387806286FDA891F0D460EE0012E6AD13878042867DA15460B3506E0012E6C
:203AD00062D1387808285FDA15460A352870F8BD012E59D13878042856DA1546093506E0BF
:203AF000012E51D1387804284EDC154608352946DBE7022E48D13888154612352946B3E7E2
:203B1000012E41D11546687901283DD011793878107161B9002837D09078012803D00428AE
:203B300018BF052830D1012003F0CEFFF8BD387850BB9078022818BF052825D104F09AF86D
:203B5000F8BD154605F1870400211F22204601F0DDFE39463246204601F09AFC0020EE71CD
:203B70000EE0154605F1680400211F22204601F0CDFE39463246204601F08AFC0120AE71F2
:203B90003146224602F020FBF8BDC046080200204C020020480200202DE9F047DFF80CA29A
:203BB0000746AAF13500DFF8F8810068800880F0E78003F0A9FC814908310B6800261C175A
:203BD000641C990D0AD2C0F13E0110F10A0F4FEAE101D8BF08218C42B8BF0C1CDFF8C4C125
:203BF000990E0FD2590E0DD36246143A1168C1F304211629A8BF20391268C2F30462162ACA
:203C10000EDB0CE0634AD2F87C11C1F304611629A8BF20391268C2F30442162A00DB203AB9
:203C300061189146162905DA11F10A0FB8BF6FF0090100E01521584C584D01F01F0242F464
:203C5000F85222802A6812F0030F18BF0126D20828BF46F002060FB146F00406424692F9B2
:203C70000740041B052C04DA9479B44208BF918866D00F28A0F10F0827DB08EB0014A4F129
:203C9000F0084FEA282EBEF1070F88BF4FF0070E7546062D88BF06255CF82570042404EBCD
:203CB000850465462C59E41B04F0FF05F70824BFC4F307273D44B70824BFC4F307473D44D4
:203CD000770828BF05EB146501E00025AE465CF82EC0F7080CF0FF0424BFCCF307273C447B
:203CF000B70824BFCCF307473C44770828BF04EB1C64ADB2A9EB0101A8EB0E277D4300290A
:203D100005F1800504EB1524D8BF012103F0FF0334254D43A9B259434FF6FF73B1FBF4F11A
:203D30008B4238BF191C802889B2918005DA10F1800FB8BF6FF07F0000E07F20D0719671FB
:203D5000194800681F2910604FF0000008D340F2FF128A4206D24908401C8A42FBD301E0A9
:203D70001F219180124F0F39090940EAC10047EA0001CAF8FB1F0026CAF8FF6FBDE8F087BC
:203D90000C490D4F424608200F60921D1070BDE8F087C0463C1100506E62084024220840AF
:203DB000F81E00209C130050082009403500094000E7A48030100940FDFDA400AC3F005062
:203DD00001282DE9FE4F40F0EE80DFF810B2DBF8DC00012840F0E4800220CBF8DC0003F0F0
:203DF000A3FC012002F0CAFB5FEA000805D00120CBF8DC0003F0A8FCD7E004F0DFF86C4988
:203E1000029000200860012003F0A4FA012818BF002003D1002002F00BF80120654900905E
:203E30000020654F08603868112004F01FF800280CBF00240124102004F018F808B144F0FD
:203E500002040F2004F012F808B144F004040B2004F00CF830B1624814300068574E016BBF
:203E7000308888470A2004F001F8002600B101264FF0805A0AF5DC75301C04D02868504EDF
:203E9000016B308888474F48012606602868816944F0200088474C48066003F0E1FF00F0A1
:203EB00001010191400814D2484803F05DFF8146B9F1040FF8D0B9F1010F05D1DAF8D801CA
:203ED00042684248032190474149086820F0030008600020FFF760FE2B683868986B8047BD
:203EF000019801280DD0B9F1010F05D1DAF8D80142683648314690473549086840F0030041
:203F100008602C48066028684169204688470B2003F0ACFF20B12868284BC16A18888847A9
:203F30000A2003F0A3FF20B12868254BC16A188888472448032206602349CBF8DC20002302
:203F50000B602868416B204688470128F9D13868042002F013FB044615481E4906603868AA
:203F700008688009FCD30098012802D1304601F05FFF03F069FF082002F000FB07460298B9
:203F9000CBF8DC6004F0FEF81348008801F04EFE03F0DAFB57EA040018BF4FF0FF3804E0CA
:203FB0006FF0040801E06FF001084046BDE8FE8F0C400940000222432C2009409E820000D4
:203FD0009A82000028200860800104430040034024220840141009401C8400005C0D002096
:203FF000A40100102DE9F0411C4615468C4208BF854282BF00230022E5E0002C08BF002D31
:204010000AD100290EBF00286FF000006FF0000100F0E1F8BDE8F0815FF000085FF0000E45
:20403000002C08BF8D429CBF2C1C0025070C47EA01470E0CB44208BFBD429EBF5FEA044496
:2040500044EA15445FEA0545070A47EA01670E0AB44208BFBD429EBF5FEA042444EA156443
:204070005FEA0525470847EAC1774E08B44208BFBD4200F29380870847EA81778E08B442AA
:2040900008BFBD427CD8C70847EA4177CE08B44208BFBD4266D8070947EA01770E09B442A8
:2040B00008BFBD4250D8470947EAC1674E09B44208BFBD423AD8870947EA81678E09B442FE
:2040D00008BFBD4224D8C70947EA4167CE09B44208BFBD420DD8E60146EA5566EF01B14238
:2040F00008BFB84201D3C01BB14158EB08085EEB0E0EA60146EA95664FEA8517B14208BF35
:20411000B84201D3C01BB14158EB08084EEB0E0E660146EAD5666F01B14208BFB84201D382
:20413000C01BB14158EB08084EEB0E0E260146EA15762F01B14208BFB84201D3C01BB14193
:2041500058EB08085EEB0E0EE60046EA5576EF00B14208BFB84201D3C01BB14158EB08081F
:204170004EEB0E0EA60046EA9576AF00B14208BFB84201D3C01BB14158EB08084EEB0E0E4D
:20419000660046EAD5766F00B14208BFB84201D3C01BB14158EB08085EEB0E0EA14208BF08
:2041B000A84201D3401BA14158EB08085EEB0E0EA34208BFAA423EBF2D0A45EA0465240AAA
:2041D00089D3734642461E4617460B46024631463846BDE8F08170472DE9F04FADF1240DF2
:2041F000079000F049FB6148007803F09DF8604D0024012808D90A380FD0801E04D0401E6F
:204210000ED0401E09D006E003F016FC022804BF01210C1C06D0696805E005211F2401E081
:20423000032107246960534A1068C0F38150012806D152F80C0C0127020E07FA02F00443E9
:2042500003F048FD524AFF230818401E471C28607F1E02F8013BFBD1079A1268002702F01C
:20427000FF03FE2B20D0DDF81CC096463B4601260EF0FF02FF2A10D0904205D3914203D87E
:2042900006FA02F2144201D002206CE017430EF0FF02DFF8FCE00EF802305CF804EF5B1C83
:2042B0000EF0FF02FE2AE5D1092000F04DFF07980121A86005F1280003F078F805F19806CE
:2042D000A8464FF0010A4FF0040B0025A9460AFA05F0044216D1074204BF05F0FF0141F4D8
:2042F000C04104D02A480799405D51F82010224800F0BAFCE8B24FF0FF3103F0C1FAC6F82C
:20431000009001E0C6F800B0D8F800006D1C361D8542DCD904A803F0B5FC184C184A2078D8
:20433000102104AB059008F10C0002F0CBF9684603F0D8FCCDF80C906A4660681149029003
:2043500008F1640002F0ECFA0F4951F80D0C20F4F85040F4005041F80D0C0C4FC1F8FFAF6A
:204370004846C7F800A009B0BDE8F08F081F0020480C0020B43F0050007FC76780840000B4
:20439000AD780000556600000D300940080009408C0C00202DE9F843614C5A4D5A4EDFF87A
:2043B00070815E4F94F8E4100846401E0B2864D8DFE800F07B2C430623430623430676645B
:2043D000042907D001220A2945F8212C14BF0220032004E0202045F8210C0120024684F85E
:2043F000E200002045F8390C0827C5F8FF7FC5F8F37F45F8392CBDE8F883052914BF0920A4
:204410000620002784F8E400376075E094F8E170383D0120002FC5F81B0004BF062000216F
:2044300002D00021F160032084F8E400032045F8010C3160306880085ED294F8E41033485C
:20445000012703290ED00068456800216022052300914046A84794F8E400062814BF0A2099
:204470000720CFE700684568002160220523022000904046A8470420C4E7FEE72548264FB2
:204490000026012506600E203D6000F0FFFD022002F08AFC84F8E45084F8E360BDE8F8837A
:2044B000002038600C25786024E04FF08059D9F8A0010168202088472C3D0F2045F8010C43
:2044D00041F61D56C5F80360D9F8A401466800214FF4C0720723022540460095B047D9F814
:2044F000A401C66800214FF4C07207234046B0470120386084F8E45004F1780003F040FD96
:20451000BDE8F88339400C4038600C40A401001000A00C402C500C4004800C4034600C40A9
:204530005C0D00202DE9F04F0C464549CA7AADF12C0D84460592487B09900D7900958A7AB6
:20455000488B4B8A0E7B91F805A091F802800492B1F846E008904A7A088B0392CD7807901C
:204570000A7AC88A02920F6A0690CA79888A01928A79E146A9F54079B9F11D0F10D8DFE8C4
:2045900009F05B5553514F4D4B494643413F3C3A380F34312E2B2923201E1C0F19181716F7
:2045B000BCF1280F49DA604602F0CAF821E0099EB246D046CDF814801DE0089807900798A8
:2045D0000690DDF818E005E03831086820608888A08032E070460AE0B1F8440009E0B1F8C9
:2045F000420004E0B1F8400001E091F83E00034612E0208021E0059804900498039001E0D7
:204610003231E2E7039802900298009006E0019A87310DE068310BE01846EAE7009D0BE0A6
:204630002C31D2E7276008E0583100E048311022204600F02DFF00E025700BB0BDE8F08FFB
:2046500008020020364AF8B5101D0368B3F1FF3F08BF002303F006F9012860D1314E10684C
:204670003268070F02F0FF02802A28BF002203F0F9F84FF0FF31012805D1381C4FD0801E71
:2046900004BF143251B2142949DB27482749002501270560264E0F60264C37602068002870
:2046B000FCD1274A161D2449244F306820F0030001433868C0080CD2106810F0030F0AD000
:2046D00041F003003060106800F003000328FAD101E041F001011B483160006820B11A4802
:2046F00000681846FBF788FF184819490560194F0A686FF35B4247EA020008601649086801
:20471000C0F30130012806D10A681448104040F400320A60086020680028FCD1F8BDFEE738
:2047300018130050A0100050840460425C600C40082204430C00684204000020B03F005032
:204750000040034080012843000120438C210840482003400000390104000940FFFFFCFC59
:204770002DE9F0413B483A4908603B48FFF734FD3A4C201D04F1100100F0D8FE05210023F2
:20479000374A206004F11C0002F0E6FE4FF08055D5F8D801334C036801210A4620469847C6
:2047B000D5F8D8014268012120469047314C0025032004F1180141F80C5F401E8D60FAD1AD
:2047D000241F062004F14C010A46401E22F80C5BFBD10820244F0880244A8F602449121D07
:2047F00022F00303CF1A6762E3612362E66904F12008944618460A4601E026F8025BB142D3
:20481000FBD8B910E82700EB810121F8045C4FF6FC761F8006EA0C0300F1E807D21A67610E
:2048300006EA0201EC39A0F8E810284600F0EAFFA061D8F80000606101F08CF901F0E2FEA0
:2048500002F050F803F09AFC2846BDE8F081C046A40F00207D64000060830000281000200C
:204870000576000000400340F9760000091F0020103F0020740E00202DE9FF47424C94F8EC
:20489000E70000286ED10127384D84F8E770E87C84F8E6006E68C4F81061684603F03CFB99
:2048B000002604F10C0001966B468DF8006030490296324601F04AFD2E4904F130006B4686
:2048D000324601F043FD2C4904F154006B468146324601F03BFDA96838468847DFF8A480EF
:2048F00026482A7D08F104030078254D1868C0F3815A22B1BAF1030F04D184F8E170BAF1BE
:20491000030F15D0BAF1020F12D0BAF1010F0CD0022002F025FC042002F01CFD012804D0FA
:2049300028683221B1FBF0F10DE002F017F812E0022002F015FCBAF1030F0CBF4FF47A713C
:2049500042F210712868B1FBF0F1484603F016FB484603F015FB40460068C00802D2304652
:2049700002F0FEFB00200090BDE8FF870C840000A34A0000BD520000755D0000081F0020BC
:20499000001F0020B03F00505C0D00202DE9F0430746ADF11C0D03F0EDFB02F099FB4FF003
:2049B00000090646CDF80C9003F07EFA30F0010002D00398B04202D16FF0040066E07868EA
:2049D0004C4658B1B0F1FF3F05D004A902F068FB30B1804659E04FF0FF3000E0204604904E
:2049F00003F0C4FB049D4FF001082D1802E00A463BE004937068049903F0B4FB00282DD0A7
:204A1000684601F08DFBD8B99DF8040005A902F015F988B9BB68BDF814009DF80610029A13
:204A3000984748B1BDF814009DF80650B881029BBD73C8463B6111E0029903A802F032FCD3
:204A50000498641CB0F1FF3FD4D00028D2D003F08DFB2B1A02D004989842CAD2039F02F0A5
:204A700063FF06F1080547B13A4652F80C1C0029BDD1296842F80C1C2F6003F06DF824B170
:204A9000706803F06BFB641EFAD1404607B0BDE8F083704710B5401EADF1300D3FD0C01E91
:204AB00036D0401E37D0401E61D103F0EBF900208DF82800082002F0F6FD041C0CD001211C
:204AD000182203F089F902F0FEFD0AA90123294A0091214601F09CFF102002F0E4FD041C39
:204AF00010D00121192203F077F99DF82800401E208101AAE26002F0E6FD1F4A214601F0C7
:204B100069FFA0B306A940F21530FFF70BFD2EE01A4803F05BFA142002F05EFC27E04FF424
:204B3000417008A9FFF7FEFC9DF821408DF805409DF822308DF8063000228DF808209DF84D
:204B500025108DF807209DF820008DF80B109DF824408DF804009DF823308DF80A40084985
:204B70008DF8093001AC22680A60606848600CB010BDC046CD7D0000BF7D000058060020C3
:204B90005F090020F8B503F059F901F083F803F067F9054605F00C000C2853D0E80826D241
:204BB00002F05CFC2A4E376804460120014602F03AFE31686143884219D22649F020B0FB8C
:204BD000F7F0241A887C18B1C868A04238BF041C214D2146284603F0BDFA284603F0B6FAAC
:204BF0000120FFF7EDF8284602F0FEFD2CE0280928D21A4803F0B8F80428FAD0184A690948
:204C100005D220B11168104621F0010103E01046016841F001010160983210684FF080556E
:204C300040F003001060D5F8B8018169202088470C4CD5F8B8712068B86B804701202060E1
:204C5000206801E0FCF7D2F903F0FEF8F8BDC046B88400000C840000680D00200040034095
:204C70008C2108402C2009402DE9F0470D4606465FFA85FA280824BF2E4845402E494FEA18
:204C90008A03C85885EA00023240C2F300672B4A06EA0504B043224006F4E0240243B4F5A9
:204CB000E02F01D1500E14D306F4E020074310D002F4E027B7F5A02707D0B7F5803704BF2D
:204CD00022F4003242F4A02203E022F4803242F4C022DFF86C80CA5008F1D0073968012250
:204CF000002002FA0AF40C4218BF101C5FEA000906D1F00D04D34146C5F3805001F80A002A
:204D1000300E0BD303F042F9290E34BF0021211C3A68A2431143396003F038FAB9F1000F5F
:204D300006D0F00D04D34046C5F3805100F80A10BDE8F087006000A000100840007F077F1F
:204D5000002002402DE9F04104469C4606AF0878DFF8C8803B8802284FF0FF0750D1486817
:204D70004578007842F6021600EB0520801B16D04DF2EF64001B18BFB0F102003ED1002BAC
:204D90003AD1BCF1010F35D11078CA681070C968474600248F4214BF0227271C33E05BBBE0
:204DB000BCF1020F26D15078157805EB002535F001061DD1C86806682046314602F0E4FC5D
:204DD00000280CBF0020807885420FD02046314602F0DAFC48B931464FF6FF7002F0D4FC7F
:204DF000002808BF11240CD004808570002408E0802406E00D2404E00B2402E00A2400E060
:204E10000124FF2F07D04046001D006818B1016809B1384688472046BDE8F081240B002049
:204E300080B50288A2F602073FB143F20502BF1A14BF002290F8242000E0C27B2D48243056
:204E5000D0F88832521F0B6048D0521E3CD0121F30D0921E24D0D21E18D00F3A0CD0D0F8B6
:204E700090224A60D0F894228A60D0F8BC0220F0784040F080503AE042694A60C26A8A608B
:204E9000406C20F0784040F0704030E002694A60826A8A60006C20F0784040F0F04026E019
:204EB000C2684A60426A8A60C06B20F0784040F0C0401CE082684A60026A8A60806B20F074
:204ED000784040F0A04012E042684A60C2698A60406B20F0784040F0405008E002684A6070
:204EF00082698A60006B20F0784040F02050C86080BDC046A0100050E0B501880025A1F6B5
:204F1000020159B143F20402891A04D0491E19D190F8246000E00226C76901E0C67B47695B
:204F300087B13F1F052044F2380357F8041F0A04120C934203D0401EF7D13F1D01E0C1F3D8
:204F500003450DB90120E0BD1F4B3046401F17D01C4A401E0FD0001F0BD0801E07D0C01E5F
:204F70000AD00F381ABF1A1C6032121D04E0121F02E0083A00E00C3A1068C0F3834003E000
:204F90001A461068C0F303200F2806D0A84216D921F4702141EA004110E0761F0AD0761F67
:204FB00008D0761F06D00F3E1CBF21F4702141F4802103D121F4002141F4E0213960002001
:204FD000E0BDC04604110050201300502DE9F0472C4D002850D0401E4AD0401E44D0401EE0
:204FF0000AD0401E4CD105294AD110680C35286017792F71BDE8F087012941D1AF6810789B
:20501000002FE8703CD02048017800244FF6FF7A8046A14234DDA0003E18385A82451ED033
:20503000B078E0B105F11400EB1C1121C268934204D0491E00F11000F8D110E08146B07881
:20505000410805D3308801214A4600F051FBB078800804D3308802214A4600F049FB98F8C3
:205070000010641CE4B2D4E7012909D1AD1C05E0012905D16D1C01E0012901D11078287007
:20509000BDE8F087240B0020080200202DE9B043044602F07BFF81462748021992F8EF10D2
:2050B000491ECFB2002F82F8EF703FD1254901EB84014A880C78904634F07F0718D1E10958
:2050D0000FD24FF0805000F5DC75D0F8B8018169104688472868416B404688470228F9D175
:2050F0001EE000EB8800D0F804110020884717E04FF08055D5F8B801016A10468847D5F875
:20511000B801816A40468847D5F8B801016B404688470A4901200860094908688008FCD34A
:2051300004F03F003F2801D0FFF7B0FF484603F02DF80020BDE8B0835C0D00202820086078
:205150002820084070820000F8B5064602F01EFF264D0746A91991F8EF00421C002881F8BC
:20517000EF203ED1224C04EB8604267806F03F003F2801D0FFF7E8FF648836F07F0018D1B8
:20519000F0090FD24FF0805000F5DC75D0F8B8014169204688472868416B204688470128D6
:2051B000F9D11EE005EB8405D5F804110120884717E04FF08055D5F8B801C16920468847DC
:2051D000D5F8B801416A20468847D5F8B801C16A2046884707490120086007490868800852
:2051F000FCD3384602F0D2FF0020F8BD5C0D00207082000028200860282008402DE9F041B8
:205210000E46294990461C4606AF8C4672680878BB8851783F881278002502EB012242F6D5
:205230002321521A29D0521E052A18D9921F0CD0263A34D1072F30D8C7F10700984298BF05
:2052500083B2674407F1080121E0B84225DBC01B9842D8BF83B22380DCF804000BE0F06823
:2052700002F0D0FC80B2B84217DBC01B9842D8BF83B22380F06839180AE0082F0DD8C7F1B7
:205290000800984298BF83B207EB0C010F31238040461A4600F0FCF803E0072501E025804F
:2052B0000A252846BDE8F081500900202DE9F04102F06CFE254D214E804605F1E00000781A
:2052D00048B93446A168022088470746102001F055F96FB31AE002F0C3FDC0091AD21848AA
:2052F0000068C4681748342101220023A04788B100F06CFD34460020A16885F8E000022075
:2053100088470746102001F039F98FB1A168032088470DE00C4800683221B1FBF0F101B990
:2053300001213035284602F029FE284602F028FE404602F02BFFBDE8F081C0460C8400007B
:20535000A401001000A00C40001F00205C0D00202DE9F04114460F4602F0F4FE1FFA80F869
:205370001F480068007808B902F0C2FAE7B138684FF0FF3518B140280AD3810B08D17E6863
:205390001EB1310A04D0310E02D1B9680F2908D93DB10CB1284620700820FFF777FE002473
:2053B00018E07968BA6803E04FF480700122014601F0BEFE0B49012008600B4908684008CC
:2053D000FCD30A4800684168022088470CB1002121700446404602F0D9FE2046BDE8F08116
:2053F00050830000A802504208800240CC010010F0B520480127F84201D000F081FF204DCA
:20541000204F214EBD4206D203CD0478A4003459401CA047F6E71D48002800D08047164DA3
:20543000164FBD4202D210CDA047FAE7F0BD03251BE0416808300A1C2A400BD11A1C2A40C2
:20545000AB4305D0046804300C600431043BF9D1131C05D0047801300C700131013BF9D1CA
:20547000021C2A4001D0A84304300368002BE0D17047C046FFFFFFFF0000000000000000A4
:205490003889000098890000F888000055C50110002A4AD05FEA000C8B071CD1830722D1DA
:2054B000102A08D370B4103A78C978C0103AFBD270BC103238D0042A2CD3082A05D30C2AE6
:2054D00024BF08C908C008C908C008C908C092072AD0920F22E00B780370491C401C521EB1
:2054F00022D08B07F7D1C30714D18307D8D0121F12D308C903801B0C4380001D121FF8D203
:205510000AE008C903701B0A43701B0A83701B0AC370001D121FF4D2121D05D00B780370F7
:20553000491C401C521EF9D1604670472DE9F843234D884606464FF0FF3105F128008146D4
:2055500002F07EFB00200CE0FF2909D02A688A4204D305EB8101D1F898700FB1002627E05E
:20557000401CB8F1000F03D018F82010FE29EBD10024346074600127B46011E0FF280ED053
:2055900005EB80000B787268C0F8986007FA03F0104370600A680949304601F0EBFB641CD6
:2055B000B8F1000F04D008EB84010878FE28E5D1484602F0FFFC3046BDE8F883007FC767BD
:2055D000480C00202DE9F8432020EFF3118780F31188214CA068012102F0B0FD4FF00109B1
:2055F0004FF0000865692168A4F81C906A1A2168A4F81E80461B401A904227D387F31188D4
:2056100040464519361A4846294602F093FDB042F7D92021EFF3118781F31188E18B0129A7
:2056300003D14046294602F085FDB0F1FF3F06D0A169801B814238BF081C411901E0A069A1
:20565000291802F073FDA4F820902560A4F81C8087F31188BDE8F88378010020B0B5044613
:20567000A768ADF1280D5FBB0C2000F0CBF8071C1DD0684600212422082302F053FD00238A
:2056900006976A466168ADF810301848059302F045FD386070B90820ADF824000C25ADF84B
:2056B000265009A801F0B0FA384601F0E5FD6FF0030018E0E06878602069B860A7600AE0BB
:2056D00002F032F90546386802F08EF82069B860284602F041FA3868616802F03BFD3868CB
:2056F00002F034FD00200AB0B0BDC046057E00002DE9F04180462048001F076815460E46F5
:20571000ADF1200D4FB106A8009042464FF6FF711B230120B847024600E0002205922AB317
:2057300000200090BDF81800FF270DF11203294601904046029700F097FC041C11D168890E
:20575000ADF81000700804D301F0BDFF1B23074600E01D23404604A93A4600F063FE041CB9
:2057700005D004A81B2102F007F900E01524204608B0BDE8F081C046F411002070B51E4D62
:20579000AC68064602F04CF94FF47A71001B4843030C01F0B9FE2969401A48BF404240F62C
:2057B000B8319B19994210D306280EDAE9688C420BD8286848B1114A091B51438A0C02EB47
:2057D0001141884288BF011C08E00D49486840080ED208687D2100F0FF004143C82905D3D9
:2057F000B1F57A6F88BF4FF47A6103E0C82101E04FF4FA61084670BDDC1E002040420F0034
:20581000AC3F0050F8B5001D84B214F0030002D0241A241DA4B202F087F81A4A102C014637
:2058300057691161C8BF9769388800221646C30BDD0319D126B984420ADD3A46012617E09F
:205850001388C3189BB29C42138011DC174618469FB1001B80B20428B4BF3C88385344F499
:2058700000443C803F1D08E080F40040002680B2C71938880028DAD10027084602F06CF989
:205890003846F8BD700E00202DE9FF410E4605461A4C7188E08A81420CDCB188814209DBDE
:2058B000F088218B884205D13089618B884208BF18271FD0052000F043FF77888046F1881B
:2058D000B388ADF80270A08AADF806100C4AADF800003789ADF8043011216846ADF80870F0
:2058F00001F031FB071C05D1A57304F1F000414601F002F938460090BDE8FF8108020020B5
:20591000717F0000002213460A46194671B510F0030F0BD0002A82BF00F8011BB2F1010225
:2059300010F0030FF6D1002A08BF71BD11F0FF0141EA0121042A18D341EA0141082A0FD377
:205950000E46102A08D30C460D46B2F10F0312F00F0272C0103BFCD812F0080F18BF42C01E
:2059700012F0040F18BF40F8041B12F0020F18BF20F8021B12F0010F18BF017071BDFEE748
:205990002DE9F041082504240746ADF1180DADF800500E46ADF802406846019401F034F9BA
:2059B00000280CBF029B002312498868F3B11F809E708046ADF80C500C20ADF80E401F463D
:2059D000CE68049003A801F01FF960B9059951B18F60304602F09EFBB8F1000F06D040467C
:2059F00002F0BCFB02E0384601F0EAFF06B0BDE8F081C046EC05002038B5054601201A4C12
:205A100068712879B0B901F08FFF2178002904BF6FF00704051C15D0491EC9B2217039B9BA
:205A300002F09AF8606801F0E3FB0020687118E0054613E001F078FF05462078FF2805D1C4
:205A50006FF00604284602F087F80BE0401CC0B20128207002D1606801F0E1FB284602F0B4
:205A70007BF80024204638BD0C12002070B50646B079F4680628A4F10C042CDA3079062840
:205A900029DA01F051FF154DB27991000C3501EBC20169184968E1B102F05EF8307920715E
:205AB000B0796071307AA071B179880000EBC1002818F1684068083001F0F4FBB1798800B8
:205AD00000EBC1002D186868406802F047FB002070BD02F041F86FF0020070BDB00E002035
:205AF0002DE9F8438146EFF31188202080F31188174D154C134F012605F11C000660A4F15C
:205B100014000660F86A016A14208847D9F81000810C14BF000C04202060386802682321EC
:205B3000002090470948066054F8180C20F4C02040F4803044F8180C2E6088F31188BDE8B8
:205B5000F883C04684010010182009408002244300002443B0B5ADF1400D02F0D7FA0446F1
:205B700000213C220823684602F0CCFA1148416806918168006804900F4800680022059011
:205B90000E480891694602F0B9FA071C0DD001F0CBFE0546384600F067FB30B1284601F09D
:205BB000DBFF204602F0A6FA01E0FBF7F7F910B0B0BDC046A4810000740E0020C57C000005
:205BD00098B5164C94F8E100002710B91448007860B102F0DBF994F8E310002906BF01216F
:205BF00084F8E310012702F0D1FA0FB1002098BD022001F0B5FA0E20FFF7A6FA094A1068BB
:205C100048B909494020C86008600127D761002084F8E20098BD012098BDC0465C0D0020F9
:205C30002184000004800C402C500C4098B5184B04461B1D18680004070C25D001F064FC08
:205C5000124991F90720824205DD10F1800FB8BF6FF07F00C871BC422CBF01273F1B8C88E5
:205C7000BC4210D80A68D3F8D40F801A801C1F2888BF1F203F1B4008C7404FF6FF70E719AE
:205C9000B84238BF071C8F8098BDC046F81E002030100940164880B507683FB315498B6872
:205CB00003EA5300C00E21D2134A106880081DD2486880081AD21068096810F0050F4FEA2D
:205CD000114101F0F00101F5E0710AD1B9420DD2190F38BF40F00100D90E38BF40F0040022
:205CF00003E0B94202D920F00500106080BDC04628500940AC3F005000000940F8B5844657
:205D100040F6FF741CF8013B002210E0481B401E10F8015B7F1E01F8015BF9D103E01CF890
:205D3000010B01F8010B521C5B08082AEADA5808F5D21CF8010B1CF8015B05F00F07FF1C9E
:205D5000C5F30315122F45EA001508D11CF8016B300A24BF1CF8010B60F3DF16F719AC4202
:205D7000D4D1F8BD10B5042001F0F4FA022821D003281FD001281AD011480068C0F3815064
:205D9000032805D002280CBF41F28832322201E04FF47A720B490C4C09684C342046B2FBFD
:205DB000F1F102F0EBF8204602F0EAF810BD00F0D5FD10BD00F0D2FD022000F0F5FF10BDF4
:205DD000B43F0050001F0020640D002038B5012001F0C0FA012820D0114DD5F82401C46852
:205DF0001048342101220023A047002808BF002014D0286801F0C4FB01F012FE0B4A0A4DD9
:205E100093681168D060C01AA1EB910105FB00F3180C884228BF011C1160012038BDC04664
:205E30008000001000A00C4040420F00DC1E0020012898B525D1012001F08CFA012820D00E
:205E500001F006FE124C012104F1D800017002F007F8800917D20D4800683222B2FBF0F777
:205E700007B90F46083C04F1300002F08BF804F13000394602F082F804F1300002F080F880
:205E900001E000F05DFF002098BDC046001F0020640D0020D0B5044602F06CF900F0E4F987
:205EB000071C08BF6FF002041FD001F03DFD0146A2880F480023243030F80C6F5EB90280EE
:205ED0004760A26882602373786820610024084601F042FE09E0964208BF6FF00204F6D0D2
:205EF0005B1C062BE8D3FBF759F82046D0BDC0468C0E00202DE9FC41144C154F0646884608
:205F1000700809D320684568002101220B461FFA88F000903846A847B00809D320684568FC
:205F30000021022201231FFA88F000903846A847F00809D320681FFA88F600210C220223F3
:205F5000446800963846A047BDE8FC81A401001000A00C40B0B5044601F0A6FF30F0010061
:205F700008BF6FF004041ED002F004F9054601F0DBFC01460D480622403030F80C7F6FB1EC
:205F9000A388BB4208D1406800680022854208BF0122A260002403E0521EEED14FF0FF3463
:205FB000084601F0D9FD2046B0BDC046700E00201348144A14490078801E0A2807D8DFE841
:205FD00000F019140F06140F06140F0607C0FEE710688008FCD250688008FCD2FEF7DAB91D
:205FF00008688008FCD3FEF7D5B908688008FCD2FEF7D0B910688008FCD3FEF7CBB9C046B5
:20601000400E002034600C4038600C403EB5401E4FF000040AD0401E04D0401E1CD1FEF75E
:20603000B9F919E0FFF7CCFD044615E0684601F073FF01940B4D8DF80040084902940122DA
:206050006B4605F1780000F081F9054A2C21234605F19C0000F036FB20463EBDC15F00006E
:20607000553600005C0D0020B0B504AF3F88002F18BF0B2025D1087802281FD14D686C78C3
:206090002F7800204FF6F17507EB04277F1B012F0ED9FF1E0CD07F1E1CBF011C0A200FD118
:2060B00005241C80C9680B68136009791171B0BD01241C80C96809781170B0BD00210120E0
:2060D0001980B0BD1549096821280ADC212819D00C380FD00D380FD0001F0FD0C01E0FD078
:2060F0001AE0253810D0001F10D0401E10D0401E10D011E0086870474868704788687047B8
:20611000C8687047086970474869704788697047C8697047086A704700207047F001002057
:20613000D0B5044602F026F800F0D2FF061C08BF6FF004001DD001F0F7FBB168002908BF8A
:20615000002709D051F80C2C0023B2600F4641F80C3CFF2601F8026C01F0FEFCA7603FB135
:2061700017F8080C207117F8070CA0710020D0BD0220D0BDDCB5044601F0FCFF00F0A8FF6E
:20619000064601F091FE30F0010014BF002E6FF0040017D0606858B1B0F1FF3F05D0694683
:2061B00000F07EFF30B107460BE04FF0FF3000E0002000907068009901F0D4FF002700B936
:2061D00001273846DCBD70472DE9F04106461148401C90F8008014460D46102001F063FA3E
:2061F000071C12D00421072201F016FD404601F0EFF938727E72BD72FC6001F064FA044A17
:20621000394600F0E7FBBDE8F0810420BDE8F0816B7F000008020020F8B5044601F0AAFF28
:2062300000F022F8071C19D001F07EFB84460D480021243030F80C6F6EB94FF6F87202803F
:2062500047600025856021717868A060604601F083FC2846F8BD491C0629EBD3FAF79EFEF3
:20627000F8BDC0468C0E00202DE9F843804601F05BFB0F4C03250026814654F80C7F5FB9DC
:206290003046C4F800800146A6600A4601F02EFF606018B9FAF782FE474501D1264601E0D4
:2062B0006D1EEAD1484601F057FC3046BDE8F8838C0E0020B0B5054601F05CFF044601F02F
:2062D000F3FD30F0010008BF6FF0040414D001F02BFB0A4A002132F80C7F4FB153681B680C
:2062F0009C4204BF2971002404D0491C0629F2D36FF0040401F030FC2046B0BDB00E0020CD
:20631000F8B506460F4D104F7388002417E0A00000EBC400321851689068D26852B9AF4223
:206330000BD00A7855F822200346491C08461946904701E0FFF7ACF87388641CA4B2A342FE
:20635000E5DCF8BDF888000004890000F0B515460E4604461F1CADF1240D08BF002308D040
:20637000684600212422082301F0DCFEB8686B460690204631462A4601F0B4FE0348044F0D
:206390000168204609B03960F0BDC046B8840000001F00200F48B0B58178062918BF0729B3
:2063B00017D14578848A0E2001F07DF9071C10D004210A2201F030FC284601F009F9387209
:2063D0007C811320387301F07EF9034A394600F001FBB0BD08020020657F0000F0B50D463F
:2063F00014461F460646002124220823ADF1240D684601F097FE00200590ADF81000084833
:206410004FF47A71A2B26B4600680697B1FBF0F080B229464243304601F064FE09B0F0BD53
:20643000B88400002DE9F04105461E4690460C46142001F038F9071C13D03246032101F009
:20645000EBFB3D81002038744046FC6001F0C0F8787401F038F9044A394600F0BBFABDE80C
:20647000F0810420BDE8F0816D7900000F4A01465068ADF1080D08B9002050600846801EF3
:2064900012D0801E10D0401E07D001208DF801009DF801000028FBD106E001208DF800009A
:2064B0009DF800000028FBD102B07047EC050020F8B50B460E49CF788D784E780C780022BC
:2064D00098B1401E10D0401E0DD0401E0AD0401E18BF02220AD108460C3001681960007999
:2064F000187103E03D462E4634461C701046F8BD240B00200C4885460C4885446F460720B1
:206510008743BD460A486F4607600A48002803D07946491D8E460047FEF76AFF01F0E0FA7A
:2065300001F0DCFDFEE7C046103F00200004000074120020DD7E00002DE9F04104460E483B
:20655000057890460E46102001F0ADF8071C10D03246042101F060FB284601F039F8387298
:20657000FC6001F0B0F83946424600F033FABDE8F0810420BDE8F0810902002038B50F4C2F
:206590000546204601F054FCA8B9204601F00AFD0446A068054209D0E36822692846002163
:2065B0009847002818BF4FF0FF3005D1204601F0FBFC041CEDD1002038BDC0465C0D0020D9
:2065D000D0B504463C20FFF71DF9071C14D000213C22082301F096FD207AB8616089386209
:2065F000E068386160683946002201F087FD0646384600F041FE16B96FF00300D0BD0020F5
:20661000D0BD704700B500213C220823ADF13C0D684601F077FD094800F5B27107914FF489
:206630002071089103210691054900236A4600F58A7001F04FFD0FB000BDC046080200206C
:206650003D0000002DE9F04101F0BAFC0C4D002401278046643D05F1980607FA04F018EA68
:20667000000F06D056F8240018B102680AB1214690472868641CE4B28442EED9BDE8F0813E
:20669000AC0C002098B50C4601F0D8FB002700B1012701F0C5F9211AB1F1004F08D8011BD8
:2066B000891DC90F05D1801DA04288BF041C00E0841D034804600FB901F0C6FB98BDC0468B
:2066D00018200940F0B514460D4606461F1CADF1340D08BF00230DD068460021302208235E
:2066F00001F0F4FC7B680893386805903A7AADF818206B4630462946224600F0A7F90DB01A
:20671000F0BD2DE9F04180461C4615460E460E2000F0C9FF071C10D0812038700123FB70DD
:20673000A7F804803E817D81BC8100F0CCFF069A394600F04FF9BDE8F0810420BDE8F081CA
