:20F000002DE9F0470F460446ADF1200D00F0A4F98F4D2068286060686860A068A8608D484B
:20F0200080478D48296801608C4CC46069684160A968816004F1C001016189488047894861
:20F040002968016069684160A968816004F11801C16004F5DA7404617FB397F820008DF819
:20F060001C0097F821608DF81D6007A804F018FD786A08B17C490160B86A08B17B490160E9
:20F080007B483978017079784170B9787E688170F9784660C170BC688460FA6AC261FB68A7
:20F0A000C36079694161B969FE698161306800B971487049486000274F70704C7049502008
:20F0C000621C04F110030DF019FC002700B101270026381C0BD005200DF0C6FB0C27082005
:20F0E000ADF818002968ADF81A7006A8884768688047644F824604A904227E7030463E701F
:20F100000BF03EFB04984FF00808B0F5801F0CD020B90DF00FFC0BF01DFD08E00BF0F0FCEB
:20F120000BF00EFD0420788001E00DF003FC574FA66055487E80B146C0F8009001261420EF
:20F140003E700DF007FBFF211422A0620BF062FAE01CFF2102220BF05DFA14200DF0FAFA9C
:20F160004B4908600868142249460BF053FA484609F0EEF930460BF0F7F846480188FF2909
:20F1800006D1022101807822001D49460BF042FA032004F087FC042002F00BF9052006F0A8
:20F1A000ADFC062003F0C7F9072003F0C1FB3A4E86F8008006F1240002F05AFA0CF05EF8BE
:20F1C000363605200A2132460BF020FB38B14846C0F10901401C06F8011B0A28F8DB2F48C1
:20F1E000092749460DF11E0205AB077010200DF085FBA06A9DF81E1041729DF81E10C174E6
:20F200000A309DF81E107F1E00F8011BF9D10DF0A7FB60612968ADF800801420ADF8020085
:20F22000684688471527ADF808800198ADF80A702968A06102A888470398A968801EE0619A
:20F24000504688470DF062FC08B0BDE8F087C04648440020014C01102C4F002084D3010017
:20F2600001500010E8480020B9C7010051C80100F445002048470020E32701005047002078
:20F28000D9C80100044800204444002000480020544400207C4700200848002004440020DD
:20F2A00000F05AB800BF00BF04F0FABB00BF00BF0DF024BB00BF00BF0DF0D6BA00BF00BF42
:20F2C0000BF05EBA00BF00BF0DF034BB00BF00BF0BF040BC00BF00BF0BF012BC00BF00BF77
:20F2E0000BF02EBC00BF00BF0DF034BA00BF00BF0BF090B900BF00BF09F02AB900BF00BF26
:20F300000BF032B800BF00BF04F0CCBB00BF00BF02F04FB800BF00BF06F0F0BB00BF00BFFB
:20F3200003F009B900BF00BF03F002BB00BF00BF02F09EB900BF00BF0BF0A0BF00BF00BFCD
:18F340000BF064BA00BF00BF0DF00ABB00BF00BF0DF0DCBB00BF00BFCC
:20F358001448B0B5B0F1FF3F01D00DF095FD124D1248A84210D01248124CA0420CD0001B81
:20F37800C71054F8040B10F8011B55F8212054F8041B90477F1EF4D103F0C9FA0A4D0B4C89
:20F39800A54205D002E054F8040B8047A542FAD1B0BDC046FFFFFFFFB8DA0100C4DA010042
:20F3B800D4DA0100C4DA0100000000000000000030B502FB01F403FB00444FF00005E2FBAD
:20F3D80000542146284630BD002A4AD05FEA000C8B071CD1830722D1102A08D370B4103AE7
:20F3F80078C978C0103AFBD270BC103238D0042A2CD3082A05D30C2A24BF08C908C008C935
:20F4180008C008C908C092072AD0920F22E00B780370491C401C521E22D08B07F7D1C30700
:20F4380014D18307D8D0121F12D308C903801B0C4380001D121FF8D20AE008C903701B0ADE
:20F4580043701B0A83701B0AC370001D121FF4D2121D05D00B780370491C401C521EF9D168
:20F4780060467047002213460A46194671B510F0030F0BD0002A82BF00F8011BB2F10102B5
:20F4980010F0030FF6D1002A08BF71BD11F0FF0141EA0121042A18D341EA0141082A0FD374
:20F4B8000E46102A08D30C460D46B2F10F0312F00F0272C0103BFCD812F0080F18BF42C01B
:20F4D80012F0040F18BF40F8041B12F0020F18BF20F8021B12F0010F18BF017071BD2DE914
:20F4F800F0411C4615468C4208BF854282BF00230022E5E0002C08BF002D0AD100290EBF6E
:20F5180000286FF000006FF0000100F0E1F8BDE8F0815FF000085FF0000E002C08BF8D4297
:20F538009CBF2C1C0025070C47EA01470E0CB44208BFBD429EBF5FEA044444EA15445FEACB
:20F558000545070A47EA01670E0AB44208BFBD429EBF5FEA042444EA15645FEA0525470894
:20F5780047EAC1774E08B44208BFBD4200F29380870847EA81778E08B44208BFBD427CD895
:20F59800C70847EA4177CE08B44208BFBD4266D8070947EA01770E09B44208BFBD4250D817
:20F5B800470947EAC1674E09B44208BFBD423AD8870947EA81678E09B44208BFBD4224D86D
:20F5D800C70947EA4167CE09B44208BFBD420DD8E60146EA5566EF01B14208BFB84201D3A8
:20F5F800C01BB14158EB08085EEB0E0EA60146EA95664FEA8517B14208BFB84201D3C01B64
:20F61800B14158EB08084EEB0E0E660146EAD5666F01B14208BFB84201D3C01BB14158EB5E
:20F6380008084EEB0E0E260146EA15762F01B14208BFB84201D3C01BB14158EB08085EEB4A
:20F658000E0EE60046EA5576EF00B14208BFB84201D3C01BB14158EB08084EEB0E0EA60003
:20F6780046EA9576AF00B14208BFB84201D3C01BB14158EB08084EEB0E0E660046EAD576AA
:20F698006F00B14208BFB84201D3C01BB14158EB08085EEB0E0EA14208BFA84201D3401B13
:20F6B800A14158EB08085EEB0E0EA34208BFAA423EBF2D0A45EA0465240A89D37346424669
:20F6D8001E4617460B46024631463846BDE8F081704770476D490860704780B50B460021C3
:20F6F800009101226A4900F0BAF802BD80B50B461988172904DB0022009203226549F2E784
:20F71800022002BD38B50D460446A878012818BF02280DD1288800281CBF6868002807D0BC
:20F7380002210AF057FF00902B4605225A4931E0022032BD38B500F01EF81CBF686800288B
:20F7580006D000F036F800902B460722534921E0022032BD38B500F00EF81CBF686800280F
:20F7780007D002210AF036FF00902B4609224C4910E0022032BD0D4604462888002870475A
:20F7980038B500F024F808B100F013F800902B460B224449204600F062F832BD38B500F06D
:20F7B80016F808B100F005F800902B460D223E49F0E701210AF00EBF38B500F008F808B170
:20F7D800FFF7F7FF00902B460F223849E2E70D4604466868704738B5FFF7CDFF1CBF68682B
:20F7F800002807D002210AF0F5FE00902B4611222F49CFE7022032BD80B500210091002365
:20F81800132270E738B50D460446A86810B105210AF0E0FE00902B4617222649BAE780B56C
:20F8380000210091002319225DE738B5FFF7CFFF10B103210AF0CEFE00902B461B2209E0D9
:20F8580038B5FFF7C4FF10B103210AF0C3FE00902B461D221849204600F050FA32BDF8B56D
:20F8780004460698009015461E46204600F046FA070009D10548026832B1012D04BF35788A
:20F898006D1CE9B2204690473846F2BD1843002031F900006DF900009FF900005DFA0000C8
:20F8B800EDFA00002DFB00009FFB0000DBFB0000E1FB000051FC0000C5FC0000F8B50646CE
:20F8D8000D46B48934B3B2681778380610D50C2C20DD0C3CA4B210190090234670880121BE
:20F8F80005F0D2F810B90121297003E0022000E000202870B80900F00100687007F03F0749
:20F91800601EA880AF7080B208B1B068401CA8600020F2BD0120F2BD0A7802704A8842708C
:20F938004A88120A8270097917E104290AD1017811708378417801EB03215180C078107105
:20F95800002070470420704705E0022B00D1D9E00420704700BF0A8802700988090A41704E
:20F9780002207047022906D10178407801EB002111800020704704207047E5E0042B00D14E
:20F99800F3E0042070478A7802708878098801280CBF0420122048431DE110B50B001CD00D
:20F9B8004B1E017801299BB207D15C0803EB9474A408B3EB840110D108E002290DD11224CD
:20F9D80093FBF4F4122101FB143333B9A1B221B110F8013B9370148013E1042010BD10B58D
:20F9F8000C46022200F04DF8001D611D0AF008FE2089801D80B210BD38B51D46052D144688
:20FA18001EDD20786178049A00EB01201080E178A078049A00EB012050800220049B1871F3
:20FA38000222049B211D581D0AF0EAFD0499A81F088180B200B1A01D0499C860002032BDF6
:20FA5800042032BD08888004000C704710B54C0801EB94739B08B1EB830303D1890801D09D
:20FA78001180CEE0042010BD10B50C4600F009F8611D2279001D0AF0C3FD2079001D80B25E
:20FA980010BD218801702188090A4170618881706188090AC170704710B5029C062B104652
:20FAB80012D1022121714278017801EB02212180C278817801EB02216180011D2279601D5A
:20FAD8000AF09EFD002010BD142B08BF1021E9D0042010BD79E010B50B000BD00378538059
:20FAF800491E022B89B205DB91FBF3F403FB141101B984E0042010BD2DE7022B00D101E0A7
:20FB18000420704710785178009A00EB01201080002070470888704738E010B5022B0ADB5E
:20FB3800029C20720298417211785078029C01EB00212180D3E0042010BDB8E009B9002075
:20FB580070470420704700BF0A8802700A88120A42704A8882704988090AC1700420704724
:20FB7800042B00D101E00420704710785178009B00EB01201880D1789078009A00EB01202A
:20FB98005080002070470888704700BF118001B9002050600020704788884004000C704797
:20FBB80003EBD3704008B3EB400008D15B08022B05DB00988380002000990A6070470420F4
:20FBD800704708887047E1E700BF02464B8808881370584380B2401C80B2704710B50B0078
:20FBF8000BD003785380491E042B89B205DB91FBF3F403FB141101B901E0042010BD14805D
:20FC1800401C5060002010BD17E010B5042B11DB00F05EF8D1789078029C00EB01206080DB
:20FC3800181F0299888080B200B1101D02998860002010BD042010BD00BF0A8802700A880C
:20FC5800120A42704A8882704A88120AC2708888001D80B2704710B5042913DB03784478AD
:20FC7800091F03EB04231380C4788378918003EB042389B2002914BF001D00209060538008
:20FC9800002010BD042010BD0978017001207047012B04D10099107808700020704704200F
:20FCB800704709B9002070470420704700BF0A8802700A88120A42704888801C80B2704789
:20FCD80010B5022B02DB00F003F808E0042010BD10785178029C00EB012020807047981E71
:20FCF8000299488080B200B1901C02994860002010BD09B900207047042070472DE9F04709
:20FD180084B080460C9C8A461646994654B9172004F04AFB0125040005D11326304604B03E
:20FD3800BDE8F087002520460127BAF1000F00F8016B02D04946D047471C30060DD510219A
:20FD5800404604F026FCD8B9BFB2E2193946204604F04CFE064668B90C370420ADF8000056
:20FD78000194ADF808706946404603F0E2FD00280646D3D0002DD1D020460CF037FDCDE783
:20FD98001926F7E730B5022918BF102985B00446154603D1022B18BF102B01D0002017E039
:20FDB8000A469A4203D129460AF056FD10E01029694606D1284600F00DF810226946204616
:20FDD80004E000F007F81022694628460AF044FD05B030BD38B505000C4618BF002C0BD0EA
:20FDF80010220FF2A80120460AF00AFC2878207368786073012032BD002032BD30B5054674
:20FE18000C0018BF002D85B014D01022294668460AF0F6FB68460021818110220FF26C01F6
:20FE38000AF01AFD012805D1287B2070687B6070012000E0002005B030BD38B504464FF675
:20FE5800FE7084420D460BD0172D09DB03F008FE2946884204D32046BDE8344004F0C7BB02
:20FE7800012032BD80B54FF6FE71884205D004F0CCFB010005D1172002BDBDE8014003F071
:20FE9800EFBD02BD7047002070470000FB349B5F800000800010000000000000282809DAE5
:20FEB8004FF6FF72914205D0DFF8302322F810100020704702207047282804DADFF81C1384
:20FED80031F8100070474FF6FF70704770B504460D46C34E1C22002130460AF08FFB3477D8
:20FEF80075770DF063F801000EBF012100211220317070BD10B5BA4CE160A0601022002136
:20FF18000AF087FC012801D1A0680CE010BD10B5B34C6060102200210AF07BFC012801D14D
:20FF3800606800E010BDBDE81040102104F00DBDAB48406870472DE9FC41A94DAE7F07463B
:20FF5800032F0C464FF0000824DC2878032818BF102058D101F08FFA28B900F049F910B96D
:20FF780000F048F908B112204DE0012F18BF022F1DD1BCB10622002168460AF03FFB00F072
:20FF980044F838B90622FF2168460AF037FB00F03CF808B1022036E00622214668460AF0AE
:20FFB8002FFB0BE00621684604F0CFFC06E0032F04D16868694604F07DFB8046894CAF77E7
:20FFD800042120780CF01EFB002028845FEA080014D1BFB1684600F05DF85FEA00080DD1A3
:08FFF800032F0FD11D20FFF7BC
:020000040001F9
:2000000067FF288450B120784EF6602204210CF083FB03E05FEA080018BFAE774046BDE875
:20002000F6810622694620460AF022BC70B5064600243000704D05D121B1062205F11000DC
:200040000AF0EAFA297801290CD10124300004D10220287006F07EFD04E0002028703046B3
:2000600000F0A6F8204670BD38B50024E0B10578614A290006D14178837801EB0321D1827E
:20008000C0781076107802280ED10124280006D103201070117ED08A03F0E8FC01E0002188
:2000A0001170284600F084F8204632BD10B5524C0146A07F78B1062204F124000AF0ACFABD
:2000C000A07F04F1240100F007F804F12400BDE810400CF07BBF10BD79B102000DD04A791B
:2000E000012808BF42F0C00206D002F03F0203284A7102D142F040024A717047010018BF9C
:200100000120704770B53C4E317FFF29054615D00A200AF08DFA040010D0D0210820217017
:20012000A07065700622B07FE07006F12401201D0AF072FA307F21460CF0B6F9F07F01281B
:200140000FD12F49086800281EBF806800288047BDE87040294800784EF6602204210CF0D6
:20016000DBBA70BD2448806870472348C168086870472148C1680A68521C0A60007FFF2875
:200180001CBF4FF480410CF0D9B970471A48807F704738B50446184D05F110000CF01AFF6C
:2001A00005F110001CB9A97F09B105F1240032BD70B5114E317FFF29054619D00E200AF0C1
:2001C00037FA040014D00020D0212170A0706570062206F11001E01C0AF01EFAF08A6081E6
:2001E0002146307E2073307FBDE870400CF05CB970BD0000844400205844002010450020FC
:200200001445002004F07EBA264900E02649086800B101207047010001D0172801DBFF286E
:2002200001D101207047002070472DE9F04B0E4691460027B9F1200F80461D46377003DB13
:200240000020BDE8F08BC719F8B24845F8D2FFB2EC5D7F1C002CF3D0FFB2E1198945EFDBB6
:2002600015F807B05846FFF7D6FF7F1C0028E7D0601EC3453070E6D1FFB2E819E1E70B492C
:200280000A7810430870704708490A7832EA0000087006D10648006818B14068002818BFF6
:2002A00000477047204300201C430020244300202C4300202DE9F04104468846122640460B
:2002C0004FF6FE7188421546DFF8847909D1B86900281CBF0268002A28D041462046904723
:2002E00021E04FF6FF71884213D1B86900281CBF0268002A04D0414620469047060005D06F
:200300002946204600F0D9FA06000FD13C707D700CE004F01DF948B10078A04205D1294638
:2003200040460CF05BFE064600E003263046BDE8F08110B5044684B000F072F808B9022081
:2003400029E02088012104F030F908B9142022E0208804F03BF9042812D1DFF8F4088189FA
:200360004FF6FF72914218BF112014D12288828161888180A188C180E188018121894181AF
:2003800000200290019021890091E388A2886188208806F037FC04B010BD30B5044685B0AB
:2003A0002088402104F001F9002836D02088ADF8040000F035F8002500281CBFA07A002840
:2003C00007D10021684600F0CDF9A07AF0B102251CE091218DF800103E208DF80100062190
:2003E0008DF802108DF803500121A088ADF808006088ADF80600E088ADF80A002089ADF89F
:200400000C008DF80350684600F0ACF920880022402104F068F8284600E0122005B030BD14
:200420002389E288A188608806F00EBB70B50E46DFF820180978022918BF0129144601D175
:20044000122070BD0CB9022070BD04F081F8050001D1142070BD1EB1287940F00200287149
:200460001022214605F118000AF0D6F82069A862002070BDF8B505000C4601D10220F2BD86
:20048000288804F065F8060001D11420F2BDDFF8C4070078022818BF012803D0B07C08282D
:2004A00002D10CB11220F2BDDFF8A477786908B11120F2BDB0200CF04DF9786108B9132080
:2004C000F2BDB02200F0C2FA786929884180A022291D001D0AF0A0F8796902200870B07C3D
:2004E0002A887969DFF8705708280CBF012000200B1D297804F048FC05461CB12146304698
:2005000004F01DFE280018BF00F055FA2846F2BD38B504460D4604F01BF808B9142032BDFC
:200520008DF800506946204604F03BFD32BD38B50022A0B101230624E4B2051915F8015CEA
:20054000303D0A2D0BD203FB05220A256B43641EE5B2002DF0D11046BDE8344001E002209F
:2005600032BD30B504460D4685B0284603F0F0FF08B9122019E0DFF8E406844228BF022009
:2005800013D21022002168460AF044F88DF80040200A210C8DF801008DF80210240E8DF84F
:2005A00003402946684604F035FC05B030BDF8B50746DFF8A0060078022818BF01280E46A7
:2005C0001D4601D11220F2BD0DB90220F2BD384603F0BEFF040001D11420F2BDE06A08B184
:2005E0000CF000F91C2128460CF0A0FB0100E16201D11320F2BDA27C082A0AD1069840B112
:200600008A7E009201F112030A8A384604F0C2FD00E00020217941F004010EB141F00201B1
:200620002171F2BD2DE9F0410D4603F091FF04001FD0A56200F007FA0646C0B200B926785C
:20064000A76A94F80580102009F0F2FF050010D0D020287085F803800020687006220920A8
:20066000A870A11D281D09F0D7FFEF602946F0B21EE0BDE8F0812DE9F04105460E46904660
:200680001F460E2009F0D4FF04000FD0D021217000206070A6800C20A07006224146A01DD8
:2006A00009F0BAFF27732146284601E0BDE8F081BDE8F0410BF0F8BEF0B50C0087B04FD094
:2006C000A079DFF88C55002828690CBF0826042608B9DFF88C050778042E08D1DFF884154A
:2006E000086800281FBF4168002900208847207D059004F10803608A04903946208A039057
:20070000E08902900196A0880090E279E07800F070F8E07880B9172104910122E089039007
:2007200002960020019004F108000090E379A188384603F08BFEE070286908B100F056F98B
:20074000287868B1697800F0B8F848B1E378312B04D0A2882978184600F079F80020287099
:2007600007B0F0BD10B584B0848859B10021029101918289009243890289C188204606F027
:20078000FFF91FBD204604B0BDE810403B2106F0F9B970B504460026A08803F0D9FE18B122
:2007A0000678A08803F085FEDFF8A454287838B1864205D1697800F080F848B1002028702D
:2007C000300005D0A379A288A078314600F03FF8686908B100F0EFF8A08803F0F7FE04287B
:2007E00002BFA088A989884204BF4FF6FF70A88170BD2DE9F0410746884616461D461620F0
:2008000009F016FF040020D0D021217005206770A070E6702DB106222946201D09F0FCFE4D
:2008200004E006220021201D09F0F4FE069860812146079820730898E081099820820A9865
:2008400060820B982075404632E7BDE8F081F8B504460D4616461F46082009F0E9FE0100B5
:2008600008D0D02206200A7088704C708E808F712846EEE0F1BD2DE9F04105460E4617461F
:2008800098460C2009F0D4FE040014D0304603F05FFE08B9DFF8C8030078D02121706570A3
:2008A0000721A170E570A680E780A4F80880069961812146FCE6BDE8F08110B50C4603F00F
:2008C0005CFE28B140882146BDE810400CF086BB122010BD2DE9F84F8046894692461C4659
:2008E000484603F035FE05001EBFDFF86473786900285ED000F1A4021821106800B134212F
:20090000906800B1143104B11C31506800B1173188B209F08DFE06004BD0182200F096F89F
:2009200000F091F85FEA000B08BF95F800B0D020307086F801800A20B070A6F8049086F85D
:2009400006A006F118057969D1F8A40040B1B5602846D1F8A41000F11C051C2209F05CFEFA
:200960007969D1F8AC0040B1F5602846D1F8AC1000F11405142209F04FFE3CB13561284670
:2009800000F11C051C22214609F046FE7969D1F8A80030B175611722D1F8A810284609F038
:2009A0003BFE31465FFA8BF00BF07EFDBDE8F14F01E0BDE8F18F10B5A54C6069A8B1D0F8B2
:2009C000A40008B10BF00EFF6069D0F8A80008B10BF008FF6069D0F8AC0008B10BF002FFCC
:2009E00060690BF0FFFE0020606110BD10B5984C206940B10BF0F6FE002020610420BDE80C
:200A00001040FFF741BC10BDF8B506460F46384603F09EFD040015D000F015F8050008BFBA
:200A20002578062009F004FE04000BD0062200F00DF8D020207066700E20A070A7802146DA
:200A4000E8B206E0F1BD2620FFF742BA002109F0E1BDBDE8F4400BF027BD2DE9F8438146A8
:200A60000E4617469846304603F072FD05001ED0102009F0DDFD040019D01022FFF7E6FF1F
:200A8000FFF7E1FF00B92878D021217084F801900F21A170A680277284F80980C0B2089980
:200AA000A1720999E1720A99E160214632E0BDE8F1832DE9F84307468846914603F048FD3D
:200AC000040025D0142009F0B3FD050020D0FFF7BAFF060008BF2678D02028700622002061
:200AE0006870A11D0B20A870E81C09F095FD18F0010118BF012129736F8118F002010846A6
:200B000018BF01206873C5F810902946F0B201E0BDE8F183BDE8F4430BF0C6BC2DE9F14FEB
:200B200090460A9C0B9EDDF830A00D9D8B469946404603F00DFD07003ED09DF8000000283C
:200B40003AD1387940F010005FEA49714CBF40F0020000F0FD00002C08BF002E08D1BAF1C7
:200B6000000F08BF002D03D100F0FB00387123E040F0040038713DB12869B86210222946F0
:200B800007F1180009F048FD4CB1BBF1000F06D1F86A08B10BF026FE1C21204609E05EB1A3
:200BA000BBF1010F08D1F86A08B10BF01BFE1C2130460CF0BBF8F862254F7869002842D026
:200BC00084B1D0F8A40028B91C200BF0C3FD7969C1F8A4007869D0F8A40018B11C222146A2
:200BE00009F01AFDBAF1000F11D07969D1F8A80028B917200BF0AEFD7969C1F8A800786915
:200C0000D0F8A80018B11722514609F005FD8DB17969D1F8AC0028B914200BF09BFD7969B1
:200C2000C1F8AC007869D0F8AC0018B11422294609F0F2FC9DF8000033464A46414601B0CF
:200C4000BDE8F04F46E6BDE8F18F074908607047D4440020754400201045002040420F00D9
:200C600074440020144500202843002070B5DFF81066054630680C4608B1112070BDDFF803
:200C80000416087810F0050F01D1122070BDDFF8F805806800281CBF0078002801D1102014
:200CA00070BD0C200BF056FD306040B30120FFF7E6FA306805700021306841700A22214609
:200CC000801C09F0A9FC00F0CFF9040002D000F0B7FA15E0DFF8B4050178032910D11D2063
:200CE000FFF7F6F8DFF8A815088048B1DFF8A40500784EF6602204210BF00EFD00E01324FB
:200D0000204670BDF8B50E46DFF8781517460A7812F0050F1D4627D0012EDFF86C1502D132
:200D20008C680CB301E0CC68F4B11F2F02DC3A0002D00DB90220F2BD08701F220021601C21
:200D400009F068FC3A462946601C09F065FC2770384626B1611CBDE8F4400CF043B9611CBA
:200D6000BDE8F4400CF042B91220F2BD38B5DFF810450146206808B9122032BD00788842B6
:200D800001D0032032BDDFF80C55287802210BF045FCDFF8F41400204880042128780BF0B2
:200DA0003DFCDFF8EC1400200880032122685170BDE832400CF01EB9F8B50446DFF8C4048C
:200DC000017811F0050F01D11220F2BD1CB12078FFF721FA08B90220F2BD6078801C20280E
:200DE0003CDA207800F0AFF908B11820F2BDDFF89864706800210022002330B345686D7887
:200E000041B9D2B2AF18BF1C202F02DAAD1CAA1802E00121AD1CEB180068EEE708200BF0CC
:200E200099FC05000FD0082200F08BF8716831B100E0014608680028FBD10D6000E0756034
:200E40006C600020F2BD1320F2BDD8B20028E5D06078DBB2C3189B1C202BDFDB0B20F2BDD8
:200E600080B500F026F801D1002002BD00F06BF900B1406802BD38B500F01BF801D1002030
:200E800032BDDFF804345968002201E00A46096861B14C6825788542F8D10868002A14BF6F
:200EA0001060586008460BF09DFC00E00024204632BDDFF8D0130A7812F0050F7047DFF8EF
:200EC000C403017811F0050F18BF00F048B91220704770B5DFF8B043A06818B10BF082FCD3
:200EE0000020A060E06818B10BF07CFC0020E060DFF89053287810F0050F1CD004F110008F
:200F000000F0B3FB2878002610F0050F11D000F07CF9A06060B100F013F800F076F9E06068
:200F200010B100F00DF804E0A0680BF05BFCA6601326304670BD002000F097FB002070BDEC
:200F40002022002109F066BB2DE9F0470146DFF830638A88012542F206043068DFF8287396
:200F6000131B05D09B1E012B62D99B1E0FD00CE08968097848B10A0004D1457001200CF0AE
:200F800039F8014608006CD036E0002569E0896891F800800028F8D04078DFF8FC920128E1
:200FA00031D100F05BF9DFF8ECA2A0B10120FEF78FFF0446422C0AD39AF800004EF66022A4
:200FC00002210BF0A9FBA4F13C0078800DE04FF47A70444302E0FEF77BFF04462CB19AF8DB
:200FE0000000224602210BF0FFFA31680220487099F8000018B9404600F00AF931E00021F2
:2010000089F800102DE099F8000050BB032009F00FFB010009D0D020087081F80180042010
:201020008870306800780BF03FFA00F009F918E042F2080082428868397806780CBF01247B
:201040000024FF290DD0042009F0F2FA48B1D0210170467002218170C470014638780BF013
:2010600023FA2846BDE8F087F0B5854F3868002885B02ED0847800F00AFA28B10A20FEF76D
:2010800027FF05460B200DE000F0E8F828B10620FEF71EFF0546072004E00820FEF718FF5C
:2010A00005460920FEF714FF064678480078FFF725F83968CA7A039203468A7A0292284654
:2010C0000A1D01922246C978009131460BF096FF00E0012005B0F0BD70B5014668486D4CDD
:2010E00000682278684D01291ED16B8813B16A4E317821B130B30078BDE8704036E63C2B03
:2011000003DBA3F13C01698070BD022110460BF085FA6A884FF47A704243207802210BF0BD
:2011200063FA0020688070BD60B1564801784B0708D5022110460BF071FA00206880BDE83A
:2011400070407DE070BD01464F48406800E0006800281EBF426813788B42F8D17047F8B553
:2011600048480178002411F0050F01D11220F2BD454EB06810B900F048F8B060F06810B9A5
:2011800000F043F8F060B06800281CBFF168002901D11320F2BDFFF7D3FEF068FFF7D0FEA0
:2011A0007568B26835B36CB969684B7811785F18BF1C202F05DA571C78189B1C59181170E2
:2011C00009E00124F268696813784978501C1844891CCB1813706A685178491C01706A6874
:2011E00011784170801C69684A78496809F014FA2D68D6E71078511C0BF0F4FEF068411CE5
:2012000000780BF0F3FE0020F2BD20200BF0A2BA38B51B4D0446286888B1032009F008FA7E
:20122000010008D0D02203200A7088704C70286800780BF039F914B1BDE8314000E031BDB4
:2012400010B50F4C206840B10BF0CCFA002020600120BDE81040FFF717B810BD80B50A4865
:20126000806858B10278431C69460120FEF7DDFF20B10178C80701D5012002BD002002BD55
:201280002043002075440020F04400207644002078440020104500207744002038B5044661
:2012A0000D4603F055F9A0B1807C042801D0122032BD3749086808B190F8995029466846F8
:2012C00003F07CFB334B6A460221204604F036FE32BD142032BD80B52F4801784A0707D561
:2012E0002E48FFF7B2FC2E4A4FF6FF71118001BDBDE802400020FFF7A8BC7CB50124032876
:201300000D4610D042F21301884204D04FF6FF7188421ED02AE0A8780C2818BF112826D1E2
:2013200000F027F823E0E878A9881D4E1A2804BF32889142F4D06A8900922B89EA88FFF7A8
:201340009AFAA8883188884211D14FF6FF7030800DE068790024122809D1ADF80040297973
:2013600068886A4602F022FB012400E00024204676BD38B50A4C20884FF6FF75A84205D099
:20138000084B09491A7802F024FB258031BD0000E8440020055F0100754400200C45002077
:2013A000E044002010450020D8440020B2494870704710B5B04C207009F011F82078BDE83E
:2013C0001040052102F0ACBA7CB5AB4E30780D46290419D50AF010F9040085F4004511D059
:2013E00000F057F858B92078A22806BFA34908787078FF2803D021460BF056F802E0204630
:2014000009F02EF9284676BDE90709D5B06800281FBF416800290020884785F0010076BDB5
:20142000A90709D5706800281FBF416800290120884785F0020076BD690726D5904C2188E4
:20144000E9B1481E208080B2E0B9FEF7DDFE48B18C4901200870706800281FBF416800293A
:2014600001208847FEF770FD694603F02FF96846FEF71CFE1D20FEF72BFD208002E0042192
:201480000BF0CCF885F0040076BD002076BD03F0A3B838B502780124912A4FF6FF7102D072
:2014A000A22A77D07CE04278052A49D00E2A04D00F2A48D03E2A6AD072E083886E4941F275
:2014C00009055A1B2DD040F6F975521B2FD0D21E31D0521E08D0921E022A05D9D21E012A6E
:2014E00015D9D21E08D05BE0496800291CBF0968002956D0884751E06349096800291CBF65
:201500004A68002A4DD0014642F20E003DE0896800291CBF0A68002A43D00146184690470C
:201520003CE08068411C0078FEF780FD36E08068FEF79AFD32E080680078FEF7E3FD30E07F
:20154000FFF727F92DE0838842F20D055A1B13D0921F02D0921F0FD022E04C4A15888D42A8
:201560000AD04B49096800291CBF0A68002A18D0014642F2130008E04349096800291CBF8D
:201580004A68002A0DD001461846904706E000F00AF803E00246408800F04CF8044600E0ED
:2015A0000024204632BD70B506460125B0780128014612D0022806D0032812D0062816D080
:2015C0000A280AD033E02C48806800281CBF416800292DD0304688472AE03146FFF76CF89E
:2015E00026E0B088324600F025F8054620E00E2009F01EF804001BD0B0880122402102F003
:2016000072FFD02020702146F07860701120A070B088A080F088E080308920817089608195
:20162000B089A081154800780AF03EFF00E00025284670BD70B50C46154602F0C7FF0126F3
:20164000042804D11248006850B1026803E00E48006828B142681AB1294620469047064675
:20166000304670BD0449886070470349486070470849086070470000104500207444002073
:201680007844002077440020EC440020E0440020284300202C430020F8B5144600250E4665
:2016A000DFF81C73DFF81C3340B1012815D0042818D006281ED0072822D02CE0162928DA01
:2016C0001622002107F10C0008F0A4FF3246214607F10C0008F0A0FF1EE0022E19D12088D8
:2016E000388119E0082E14D1384621460822FDF777FE11E0012E0CD1DA6903F1280104E064
:20170000012E06D1DA6B03F14801207800F040F802E0182500E002252846F2BD10B50B4628
:201720000024A74920B1012808D0042809D00DE015220C31184608F06FFF08E00889188088
:2017400005E018460822FDF74BFE00E00224204610BD70470020704780B50021C00707D51F
:201760000FF2682397481022072101F026F90146084602BD80B50021C00704D5914A508996
:2017800001F047F90146084602BD8F490860704710B50B7884074CBF43F0020303F0FD03C4
:2017A00004064CBF43F0800303F07F0304074CBF43F0080303F0F70384064CBF43F02003BD
:2017C00003F0DF0310F0AA0F0B7004D0107840F00C00107010BD18B9117801F0F30111705B
:2017E00010BDF8B50F4600263878022814461D4661D1786801784278069801EB022189B230
:20180000002818BFB1F5285F01D00B20F2BD4FF42850091A08D0491E1CD0491E2AD0491E20
:2018200020D0491E2CD046E0F8680BF06DFA069B079980B2C21A8A42ACBF0846C01A80B28D
:20184000C118162904DA28800246F868C1180DE00D2632E0F8680088022129802070000AE9
:2018600060702AE0062028800622F968204608F0D3FE22E001202880F868017821701CE0D7
:20188000F868B0B108212980018821700188090A61704188A1704188090AE170818821718C
:2018A0008188090A6171C188A171C088000AE07103E0298001E02E8001263046F2BD2DE9BF
:2018C000F8460E46814630780024022817469A4671D17068017842783B4D01EB022189B25D
:2018E0004FF42850091A06D0491E2ED0491E53D0491E3DD05FE0F0680BF006FA089980B26C
:20190000884206D308460AEB0001162903DB0D2452E0072450E0F36852463946184408F03F
:201920007BFE08985044ADF8200000210898F368C0F11602184408F06DFE286800281CBFFE
:201940000268002A38D0002123E0089888BBBAF1020FDCD139787878F26801EB00211180E2
:20196000286800281CBF0268002A25D0012110E00898F0B9BAF1060FC9D1F0680622394697
:2019800008F04AFE286800281CBF0268002A13D00321484690470FE0089850B9BAF1010F21
:2019A000B5D13878002813BF0128F1680870802402E00B2400E001242046BDE8F2860000C0
:2019C000204500204445002030430020E3170100BF1801000000000070B5DFF8A85A2878D5
:2019E000062460430AF0B6FEDFF89C1A086008B9132070BD0020FF222B78984211DA0B683A
:201A000004FB00F61E44002814BF4FF6FF734FF6FE733380401C0023F270B2703371C0B23B
:201A2000EAE70FF2C54000F063FD0FF68910FDF75DFE0FF6C91002F0FAFC002070BD70B55A
:201A40000446208868B160680378426800F07AF948B9606803784268DFF8300A00F074F9CF
:201A600008B9022070BDA078C01F0A2801D3182070BDDFF81C6A308820B12188C0F5803000
:201A8000884201DA012070BD0C200AF063FE050001D1132070BD002008E06268318880B2D8
:201AA00002EB0012401C5181491C318081B222889142F2D30020286008222146281D08F0F8
:201AC000ABFD716811B9756004E0014608680028FBD10D60002070BD70B5DFF8B4395C68F0
:201AE00002460846002101E02146246894B1A5686E899642F8D1226800290CBF5A600A60CF
:201B000018B10822211D08F087FD20460AF06AFE002070BD012070BDDFF87819087070471E
:201B200010B5044611F0140F104603D000F015F9012204E04A0608D500F00FF900220146B6
:201B40002046BDE8104002F072BDC80701D4022010BD002010BD70B50E460546B1061046B8
:201B60001C4608D500F0F9F801462846BDE87040012202F05CBD16F0880F0FD000F0EDF8BC
:201B8000014606F00802284602F051FD010009D0617A41B1227A012A04D070BDB00701D455
:201BA000032070BD002070BD7CB50546002000900E460223DFF8E0284FF6FF71012000F03E
:201BC0002CF8040026D0002304221D21284600F0C3FD0190E0B104216089ADF80210ADF8B6
:201BE0000000012001990870002001994870FF200199887033460199C87000226946284605
:201C000000F00DF9040006D001980AF0FBFD02E0152400E00124204676BD2DE9F04780469D
:201C2000DFF86C084468894616469A4600E02468CCB10027A188B8B28842F8D2A068BFB2F2
:201C400000EB07156889404528BF814509D35FEA0A000BD02978686853463246FEF79EF843
:201C600020B97F1CE6E70020BDE8F087089818B1A1684889089908802846F5E7F0B5024644
:201C8000DFF80C08406812E004F1010C1FFA8CF3BB420BD21FFA8CF405EB0413B3F80AE016
:201CA0009645F1D101B10E801846F0BD00680028FBD085686E89B242F8DB8788BB199A4277
:201CC000F4DA4FF0000CE1E72DE9FC4106460025ADF804504FF6FF777089B84290461C4680
:201CE00008D001AA0092401C3378726880B2FFF794FF05463378726800F024F830B93378C3
:201D00007268DFF8880700F01FF808B170890CE033787268DFF8840700F016F860B11DB11A
:201D2000BDF80400404504D0404600F0D3F8074603E068893F1800E0778904B1278028462E
:201D4000BDE8F681DFF858070221FEF727B880B500F0F2FA00B1008802BD80B500F0ECFA26
:201D600008B1807802BD102002BD70B5012982B00446154616D0032918D0052925D0072991
:201D800027D0092929D00B292BD00D292DD00F292FD0112931D0132933D0172934D0192988
:201DA00036D039E02946FDF7A4FC33E001F064FEADF8000069462046FDF7A4FC06002CD14A
:201DC0002988204600F075FC27E02946FDF7A6FC20E02946FDF7BAFC1CE02946FDF7C6FC45
:201DE00018E02946FDF7D8FC14E02946FDF7E2FC10E02946FDF7ECFC0CE02946FDF7F7FC02
:201E000008E0FDF705FD05E02946FDF707FD01E0FDF711FD064600E00226304676BD2DE9A2
:201E2000FC410E46054617461C4601A900F091FA804638BB380014D00020ADF80000694699
:201E40003088FFF71BFF012FBDF8000018BF0027FFF783FF01463A46284602F0E8FB80468F
:201E600080B931462846FDF7F7FC804650B9019DFF2C07D0AB1C1E2229460FF2555000F0E2
:201E8000FAFBEC704046BDE8F6817CB50D460446164601A900F05DFA17281AD0300014D0F7
:201EA0000020ADF8000069462888FFF7E7FE012EBDF8000018BF0026FFF74FFF014632463F
:201EC000204602F0B4FB010003D129462046FDF7B8FC76BD10B50446FFF739FF01001CBF5D
:201EE000611E0C18A0B210BD2DE9F0430E4689B08146B07800241E28174614D1484600F031
:201F00003CFA04001EBFA078FE28FF2822D0002000900022B378E078494600F07FFB20469F
:201F200000F040FA16E0122804BF7078012813D0484600F022FA04001CBF2279002A0BD077
:201F4000100607D4B178484600F0C6FB207940F08000207100206AE0DFF838552878FF28B9
:201F600012D0B078811E17290ED200F08AF958B1B07800F0B3F938B1307810B971780129EB
:201F800004D1B078122801D0062050E0B07800F078F9844602A80090B388B2687178307870
:201FA000E0470028804641D1B07800F097F9024602A9484690478046E0B9B378042B35D03C
:201FC00002A8009000222878494600F027FB002880462BD1B17802A800F094FB08B100204F
:201FE0003870B078122804BF717801291ED0ECB120711BE07078C8B9B1788DF800108DF83E
:2020000004806946B078042818BF0628BDF80800ADF802004846FDF76CFB28B16B4601223A
:202020001621484600F03BFB4FF00008404609B0BDE8F083002070472DE9FE430E468146CE
:2020400030887188814201D3010001D1012067E00021ADF8041002914FF6FF7821E002943D
:202060002878022834D1BDF8007001218DF80610BF082878022855D1698904F8011B0222CA
:2020800000F056F8A41CBDF80400401CADF80400B9B2BDF80400884244D26889404541D0F9
:2020A000401C0021009100237188002280B2FFF7B4FD050036D0BDF80400E0B96B46424665
:2020C0000521484600F048FB0400C8D1112027E002208DF806001221BDF8000090FBF1F73C
:2020E000297810291ED1688904F8010B102200F01FF81034C7E79DF806000128F0D1B8E7CF
:2021000001A94846FDF70AFB48B101AB05221621484600F0C4FA10B102980AF073FB00206C
:20212000BDE8FE83BDF804000028E9D10A20F7E76889000A04F8010B2046696808F06CBA7E
:2021400010B582B04C880888844200D308B9012016BD00F015F808B90A2016BD002016BD28
:2021600010B582B04C880888844200D308B9012016BD00F005F808B90A2016BD002016BD18
:20218000002200924A1D0B79214646E510B5044682B0084669460088FFF770FD08B9012003
:2021A00016BD017ABDF800202046FFF7B9FC16BD70B582B006460D46002409E0017ABDF8E5
:2021C00000203046FFF7ACFC01001DD1641CA4B2A888844222DA286810F81420401C69463D
:2021E00010F8140002EB002290B2FFF747FD0028E4D1286810F8141001702868411C11F838
:2022000014104170012076BD296811F814200A7029684A1C12F814204A7076BD002076BDD8
:2022200010B50C4682B020886188814200D308B9012016BD23799A48621DFFF785FD08B943
:20224000102016BD00200090237961882088621DFFF7E3FC08B90A2016BD002016BD38B5AC
:2022600004460D4669462888FFF708FD08B9012032BD017ABDF800202B462046FFF76BFC12
:2022800032BD022814D0042814D0062814D008281AD00A2812D00C2812D00E2812D010288B
:2022A00012D0122812D0162812D0182812D013E07C4870477C4870477C4870477C487047FF
:2022C0007C4870477C4870477C4870477C4870477C4870477C48704700207047022814D037
:2022E000042814D0062814D0082814D00A2818BF0C2812D00E2812D0102812D0122818BF46
:20230000162810D0182810D012E070487047704870477048704770487047704870477048AA
:20232000704770487047704870470FF20900704700207047002070475549496800E00968F9
:2023400029B18A6853898342F9D1081D70470020704710B50C4600F010F860B104B120603E
:202360008078FE2801D1172010BDFF2801D1002010BD162010BD022010BD30B5424A1268A6
:20238000002100E0491C3F4C2578CBB2AB4207D2C9B206234B43D55A8542F3D1D01830BDAB
:2023A000002030BD10B50446A01C00F06CF9FF21E17010BD10B50C46FFF7DFFF30B101796C
:2023C0004A1C944204BF01F08001017110BD000010B582B004001EBFA078FF28FE280BD035
:2023E000002000901E232188E078172200F016F9FE21FF20A170E07013BD000070B50546D4
:202400004FF6FE70854282B037D008004FF6FF760AD12846FFF7B1FF78BB3046FFF7ADFF0D
:2024200004002AD0058073BD012906D12846FFF7A4FF040021D026800BE002291DD1012120
:20244000284602F0B2F8C0B92846FFF796FF040013D0A078FF280ED0FE2807D0002000904F
:202460001E23E0781422294600F0D8F82046FFF799FFFF20A0700020207173BD0448008886
:20248000704700002543002034430020E0280100B44500201F45002018290100E82801006D
:2024A000DC28010063F9000095F9000011FA000013FB000079FB0000B9FB0000B1FA000041
:2024C00033FB000023FC0000A9FC0000352001003920010041210100612101008D210100C5
:2024E000B1210100212201005F220100704770478149086070478049486070477F49087084
:202500007047032290FBF2F080B201F086BA0278B02A04BF417800290CD10179122903D1B0
:20252000417C012906D101E01B2903D14088012101F090BA704710B5714C607002F060F86C
:20254000401C20700421607801F0EAF9BDE81040FFF742BA38B50D46280410D56849487815
:2025600009F04AF8040007D02178A02908BF00F008F8204608F074F885F4004032BD00209A
:2025800032BD30B587B0044601208DF8000001A92046FDF79FF9050028D19DF8061056485D
:2025A000CA0709D543682BB160886A4601A9984705461BE0062519E0036833B160886A4673
:2025C00001A99847050001D110E006259DF8050060B99DF806008DF810000021ADF81210B5
:2025E0008DF8145004A96088FDF783F89DF8000000281EBFA06800280AF004F945B99DF89A
:202600000600122806BF9DF8051001291B2803D06088012101F01EFA07B030BD2DE9F041CD
:202620000546FF2D0E461746984621D0202007F0FFFF04001AD0B02121706770668084F8E5
:202640000480069830B10146182204F1080007F0E3FF05E01822002104F1080007F0DAFF13
:202660002146284609F020FF002002E0132000E00220BDE8F08110B54FF47A746243BDE8E0
:2026800010400AF0FFBB10B504001EBF2078FF28FE2803D00AF07CFBFF20207010BD80B5B6
:2026A000009313460A46014614480078FFF7B6FF02BD30B583B004460D46FDF7CAFB50B9E2
:2026C00001A821460090ADF804507F230B4C20780022FFF7A3FF37BD1CB58DF8041001A90E
:2026E00000918DF805200146044C20787E230022FFF794FF13BD000038430020BC45002098
:2027000025430020052923D006291BD0072918BF09291DD00B2918BF0D2919D00E2913D08C
:202720000F291CBF1129122912D0162918BF17290CD01B2918BF1D290AD0522918BFD22975
:2027400006D007E0C068704700687047806870474068704700207047F8B5052915461C4651
:2027600016D0062912D0092918BF112910D0122912D0162918BF17290CD01B2918BF1D298F
:202780000AD0522918BFD22906D007E0072606E0022604E0052602E0032600E001264FF6B4
:2027A000FF72954203D1FDF769FB851B02E0D22908BF0C357719B8B201F002FE38B104B197
:2027C0002580764231B2BDE8F44007F00FBFF2BD80B5FFF797FF18B1BDE802400AF012B837
:2027E00001BD704702460020022971D11178527801EB022189B24FF4C053C91A2AD0491E58
:202800002BD040F6FF73C91A2AD0491E2BD0491E2CD0491E2DD0FD392ED0491E2FD0491E0E
:2028200030D0491E31D0491E32D0491E33D0491E34D0491E35D0491E36D0F83937D0491E7A
:2028400038D0491E3CD0491E37D0491E3BD0491E3CD070470FF27C0070470FF27C0070478B
:202860000FF2780070470FF2780070470FF2740070470FF2740070470FF2700070470FF277
:20288000700070470FF26C0070470FF26C0070470FF2680070470FF2680070470FF27C000C
:2028A00070470FF27C0070470FF2780070470FF2540070470FF2500070470FF254007047DD
:2028C0000FF2480070470FF24C0070470FF24800704700000018000001180000002800009B
:2028E000012800000228000003280000002900000129000002290000032900000429000083
:2029000005290000002A0000012A0000022A0000032A0000042A0000052A0000062900004F
:202920000729000008297047DFF8381C0870704738B5DFF8344CDFF8345C20762878C00084
:2029400009F008FFE061C8B12A78002108E04FF6FF7320F8313000EBC10500236B60491CDE
:202960009142F4DB052000F0AFF8207EFFF7D4F8BDE83240DFF8380C01F059BD31BD38B585
:202980000D46280417D5DFF82C1C087E08F034FE04000DD02178B02907D100F00BF920B10D
:2029A000217904F10800FFF713FF204607F058FE85F4004032BD002032BD7CB505001C4676
:2029C0000DD0ADF800108DF8022001956846FFF736F806001BD1D4B16D89280001D10226C7
:2029E00015E00C2009F0B6FE010008BF13260ED0002008608D808C60DFF8BC0B026812B9D6
:202A0000016004E0024610680028FBD11160304676BD30B5DFF8A02B05460C46106883B0D4
:202A2000002101E00146006898B18388AB42F9D1036800290CBF13600B6009F0D3FE694624
:202A40002846FFF749F8010002D10CB1019921603EBD01203EBDF8B5E0B9012918D1DFF8DE
:202A6000083BDC69002118E06D1C5E7EE8B2B04212D204EBC100EDB246680C276F43F05BB3
:202A80000028F1D00120F2BD1078BDE8F2401BE01820F2BD0220F2BD491CDFF8D00A0578D8
:202AA000A942F1DA34F831504FF6FF708542F3D00025DAE70246002022B9DFF8F82A537E82
:202AC0000B707047022070472DE9F843DFF8985A0446002068764FF00C09E869DFF88C6A17
:202AE000406809FB04F770B109F07CFE0020002305E0E9690A1DC0B242F83030401C3278E8
:202B0000C1B29142F5D33078784380B209F022FE5FEA000826D032787A43002107F07AFDBC
:202B200000200FE0516809FB0CF34FF0000E21F803E019440CF1010CC1F808E0A445F1DBC4
:202B4000B844401C3278C1B2914208D2E969C0B201EBC0024FF0000CC2F80480EEE76C76A1
:202B6000002000E01320BDE8F28380B50021C00707D5002310220121DFF8580CFFF71DFF4B
:202B80000146084602BD80B50021C00705D5DFF8442C5089FFF73DFF0146084602BDDFF86D
:202BA000181A096821B18A888242FAD188687047002070472DE9F04186B005460020ADF8F4
:202BC00010000121DFF8A069306A8DF8121038B900F052FF09F0BEFD0028306200F0DA80B8
:202BE00018220021304607F015FD2879471C02284FF6FF7817D006282CD008282FD00A289F
:202C000033D00C2853D00E2800F08380102800F08580122800F08780162800F08B8018285A
:202C200000F08F80B3E000F027FF308031466888FCF768FD00282989308804D0814228BF6D
:202C40000146318098E0814228BF01466888FFF730FD9CE004A9284600F0ADF875E004AAD1
:202C60000021284600F033F96FE000F098F804004AD0688805AB42460B21FFF76DFD030005
:202C8000736020D02879BDF81410039000220192029100F089F8040004D168883146FCF778
:202CA0007BFD25E0162C706808BF002427E000F076F8040028D0688805AB42460D21FFF7E5
:202CC0004BFD706020B92889ADF81000112441E02979BDF8142003910292034669890191C7
:202CE00000F062F8040006D168883146FCF762FD002841D12AE0162C706808BF002409F0B4
:202D000081FD200001D121E001242889ADF810001CE004A9284600F075F916E004A9284631
:202D200000F0EDF911E00DF1120204A9284600F097FA0AE00DF1120204A9284600F0D1FA4C
:202D400003E004A9284600F03BFB0446200011D0162C11D0687814280CD0BDF81000297982
:202D600070803170347131466888FCF7C2FC08B1012701E0162C0AD168883346FAB21621DA
:202D8000FFF78DFC18B1F9B23046FFF721FD2846FFF7BDFB9DF8120006B0BDE8F081288976
:202DA0000DF11601FEF76ABF0096BDF816206888214600F009BC2DE9F04D044686B0608898
:202DC000DFF8A4778A46FDF759F804A983460091237B6189208904F10D02FEF71EFF002579
:202DE0008046B8F1000F5FD024E0B8F80A60BDF8102061890DF112034046FEF765FF002E19
:202E00008046EED0786846556D1C7868ADB2361246556D1C681C7A68B8F1000FADB23DD0F5
:202E2000BDF81210515580B2BDF812107A68090A1154451CADB2ABF10500854234DA2079E3
:202E400003900026ABF1070080B20290019607F11A0100913B6ABDF810206088414600F02E
:202E6000B3FB002802BF7A8B208A9042BFD1396A606907F0FDFC0028B9D078680028B4D110
:202E8000608800F038F90721FFF766FC00287860ABD12089AAF80000112015E0FF215155F6
:202EA00080B27A681154451CA8B248B12D04AD0C3D8039466088FCF749FC28B1162003E0AD
:202EC0002089AAF800000A2006B0BDE8F08D2DE9F043054685B0688889469046FCF7CEFF87
:202EE000871EBFB2DFF880663189B81E88423DDB5FEA09003AD100F0AAF9040036D06089AA
:202F0000288100F09EF95FEA00092FD12879039000210191B81E80B206F11A01029000910B
:202F2000336ABDF81020FFF742FF5FEA00091DD16389728B316A688800F027F85FEA0009C3
:202F400014D128894FF6FF7188421CBF401C2881CAD10BE05FEA09002889A8F8000008BF8C
:202F60004FF00A09484605B0BDE8F08330890028F0D0718890FBF1F0308031466888FCF794
:202F8000F5FB0028EFD01620EDE72DE9F8468246894615461E46FCF771FFDFF8CC4507460E
:202FA000208990B900F0A7F809215046FFF7D4FB606008B9112023E0A81C60803F1F2089AB
:202FC00001466A18974206D203E06088A91C8842F4D0012014E0401C20812A466068465475
:202FE000360A2089411C218161680E54606823894946184407F010FB20892D1825810020A9
:20300000BDE8F2862DE9F047074686B07888DFF858650C46FCF732FF4FF00009451EA0F17D
:20302000010832E03979336ABDF810200391A9B202910021019106F11A0100910146788822
:2030400000F0C2FA8246B0BB706840B9788800F052F80F21FFF780FB0028706035D0308830
:20306000718B0346C9188845BCBF281A70837068728B316A184407F0CFFA3088718B08184D
:20308000308009F101001FFA80F9B8898145BCBF308840451DDAB86810F8192000EB4900A8
:2030A00004A9437802EB032290B2FEF7E7FD0028B8D14FF0010A00F014F8706808B109F0FA
:2030C000A1FB504606B0BDE8F08700F00AF81120F8E778883146FCF77BFB0028F2D01620EA
:2030E000F0E7B86810F8191000EB4900427801EB02212180704700234FF6FF7270472DE9AD
:20310000F04F054687B06888DFF85C748846FCF7B5FE044600F09BF805940026B3464FF01F
:20312000FF090446002CB6B27DD000F08AF80028834675D1287905993B6A03908A1F002073
:20314000019092B207F11A00029200902146BDF81020688800F038FA0028834660D1002EB6
:2031600047D16888FFF7C7FF1121FFF7F5FA0028786039D0788B001D78800DF1120379685F
:2031800060898855761C60897968B6B2000A8855BDF8102069892046761CFEF795FD721CDA
:2031A0000446B6B24CB9786800F8069091B2786800F8019001F1010A0BE07968BDF81200AE
:2031C000885592B2BDF812007968000A885402F1010A78687A8B396A1FFA8AFA504407F092
:2031E0001BFA7E8B56449DE76089A8F80000112013E0788B7988021D914216D10599891FC3
:2032000080198142B9DA10E02889A8F80000BBF1000F08BF4FF00A0B584607B0BDE8F08F2F
:203220006089A8F80000002EEED0788896FBF0F0388039466888FCF7DAFA0028EDD016209F
:20324000EBE7BDF81020217A6888FEF769BC04A800902B7B6989288905F10D02FEF7DDBCFA
:20326000FEB505460E462889174602A9FEF706FD04002ED0207A81060BD5BDF8080000F09B
:203280009DF903000BD06888122221469847040020D1687C002814BF5220287901E00E2456
:2032A00018E00190002000906B89EA682989688800F092FA040007D1687C68B96888FCF7AD
:2032C000A7FA48B11620FEBD162C03D100243C7002E0012428893080687C00B100242046F6
:2032E000FEBD2DE9F041054682B00E4668889046012101F05AF9002718B9142169700E209B
:203300005AE028896946FEF7B9FC040050D0207A81060BD5BDF8000000F050F9030014D06F
:203320006888122221469847070042D16C88204600F002F930B94FF6FF7000F0FDF800281A
:203340003CD004800022884C02E00E2731E0521C637ED1B2994231D24168D2B20C2353431D
:203360000B4419880029F2D10C2205F10801184607F052F9002088F800000C2205F10801D7
:20338000204607F049F9AA89688800231721FFF7E3F9A06050B1AA89296907F03DF968885B
:2033A0002146FCF73BFA30B1162005E0112700E00127288930803846BDE8F6810927F8E738
:2033C0002DE9FC4105468846688800F0B5F80026040045D0287A01283DD1214605F1080077
:2033E00000F050F8F0B16768182000F045F83988688800F0F1F90646162E02D10020B8609A
:2034000029E0300027D03888A8F8000023E000F033F8688800F0E0F9162816D10021B960E6
:20342000761CF6B250494A7E964213DA61680C2373430B441F46398861B1701C90421DBFBD
:203440009889002816201820E1E70028E8D03988A8F800100646204600F08AF8300005D172
:203460006888FCF7E8F920B1162003E0162E08BF00263046BDE8F681019078880090BB8877
:20348000BA6870472DE9F84F374B5B7E0020834682464FF00C0889469A4540DAD9F80410EA
:2034A00008FB0AF40C442188002938D060B1884202BF658891B2A94201BFA1888B441FFA59
:2034C0008BFB8A1805D035E0B4F804B0628808465A4492B20AF1010ADEE7002415E008FB79
:2034E00004F14718B96849B1BA88A81907F094F8B8888619B86809F085F9B6B224B10C22F6
:203500000021384607F086F8641C5445D9F80400E5DB8560A0F804B00120BDE8F28FBAF1C6
:20352000020FF9DB00265FEA0B0003D009F026F90500D2D10020F0E730B51E4AD2690021F9
:2035400000E0491C094C2578CBB2AB4207D2C9B232F831308342F4D102EBC10030BD0020A6
:2035600030BD0000BD450020404300209C43002070B5044600250F494A7EE8B2904213D295
:203580006068EDB20C2169434618308860B1B06808B109F037F90C220021304607F03AF8DC
:2035A000002030806D1CE6E74FF6FF70208070BD89380100404300206443002080B5FFF70D
:2035C000EEFA00B1806802BD2DE9F0410C4684B00746207A0026C10690461D460BD540466B
:2035E000FFF7ECFF030000F0F2800A22214638469847060050D1207802281AD16068017880
:20360000427801EB022189B24FF42050091A012910D9891E41D0491E16D0FD3905D0491E46
:2036200000F08B80491E74D0491E7BD0491E00F0A180B8E00B98002831D1E0680A9A0178F0
:2036400011800278416891E00B98002827D10A9801210180E0680178297000216089401C7D
:2036600080B2FEF70BFB0A99098868B102780A9B921C51181980418969704189090AA97068
:2036800002784168E81C72E00A98091D018004220021681C06F0BEFF9AE00B9800286BD169
:2036A000E06807880A98042101802F70380A68700DF102013846FEF7E1FA04001FD0E768A1
:2036C000BDF802204FF6FF786B464146FEF7FCFA40B9237862688F480221FCF75FFB08B9CE
:2036E000ADF80080387802280BD179680222281D06F092FF0A980188891C018001E0ADF847
:203700000070BDF80000A870BDF80000000AE8705EE00B9800282FD1E0680168384609F024
:203720002FFC03E00B9838BBE06800880A9A022111802870000A68704AE0E06809F0E4FAFA
:203740000B9B80B29842B8BF072641DB834208BF002006D00C99C9188142B2BF0C98C01A3D
:2037600080B20A9908800246E068C118284606F053FF2DE00B9808B10B2629E00A9AE0683E
:203780000721118002782A70417869704188A9704188090AE97001792971C1886971C08834
:2037A000000AA87114E04046FFF7F9F978B1066830000CD00D980C990A9B029001912A465E
:2037C0000B98009021463846B047064600E00E2642E00000C04500202DE9F04184B005466D
:2037E000884617461E4602A94046FEF747FA040031D0BDF80800FFF7D2F900281CBFD0F885
:2038000004C0BCF1000F24D00B990A980191009033463A4621462846E0470646E0B90B984F
:20382000FE2819D02178022916D160680178407801EB002189B242F6021291420CD13978E0
:20384000787801EB00218AB24146284600F046F802E00E2600E00126304604B0BDE8F081AF
:2038600070470020704710B584B0FE238DF808200193120A8DF8092000240094022302AA0C
:20388000FFF7AAFF04B010BD7CB50129054605D0022922D1012100F088FEF0B92846FFF7CA
:2038A0004BFE08B1FFF764FE01A800904FF6FF760223194A31460120FEF7AFF90BE0E068CB
:2038C0000168284609F064FBBDF80420002331462046FEF7F9F90400F1D173BDF8B50F4FF8
:2038E0000D463978FF290446164611D00A2006F09FFE68B1B12101704480002141700171F4
:20390000C580068101463878BDE8F44008F0CCBDF1BD0000E0280100F4280100BD45002094
:203920000B4610B5052B18BF042B03D0062B18BF072B08D10C22524C5343E21822F8301D92
:203940009070002010BD022010BD38B50D4604462888052818BF042803D0062818BF07281A
:2039600001D1686808B9022032BD0121204600F01CFE08B9142032BD4FF6FE70844207D00D
:20398000204600F04EFE2989884201D21B2032BD3C49087800282946204603D0BDE834401E
:2039A00000F095BABDE8344000F046BA80B51346354A00920A4601212CE0E0B50192002357
:2039C0000522009202930A46304B0A2100F0CCF90EBD70B50D4684B004461646EB88AA882C
:2039E0006988288803F030F858B1002104200291009001962A46264B1221204600F0B4F9EC
:203A000000E0182004B070BD80B51346214A00920A46132100F0DAF902BD38B504461E487F
:203A200001700846012810D11C490D882D1DADB209F0E8FA94FBF5F082B2284601B0BDE8D3
:203A400030400023002109F0E1BABDE83240002009F0D8BA03B510480178012981B004D1A3
:203A600002AA01A9012009F0D5FA07BD0B4A001F1080044A1170704708480088704700002A
:203A800068430020D2450020CB3F0100BB40010049400100AF40010027430020BE450020F6
:203AA0007047000010B59D4C207000F099FC302200219B4806F0AEFD9A4A60781178081830
:203AC00060700006000D08F045FE606088B162781201002106F09EFD0020FF236278C1B2A1
:203AE000914207D26168C0B201EB0011401C4B72F4E76070207806F075FCBDE810400FF229
:203B0000292000F094BC30B50D46280489B0834C0CD5207807F070FD040004D000F029F8EA
:203B2000204606F09DFD85F4004020E0E8071DD500F095F930B1A078A8B12078012108F073
:203B4000FDFC10E0A17800291CBFE078FF280AD08DF80810002202A90191009265234FF6AB
:203B6000FF7100F033FB85F0010000E0002009B030BD3EB50446207890284BD161781329DD
:203B800015D10021654A06E0A368C9B233F8113018189070491CA5789078CBB2AB42F3D3AD
:203BA000002837D01078012108F0C8FC37BD65882146684600F0DEF90146019800B3BDF86B
:203BC0000000052804D16946284600F027F819E004281CBF0628072814D10C21504A484323
:203BE0001118A1F13003188860B198786A46294600F0CAFA30B9BDF8000004280AD005E0BA
:203C0000012903D1A06808B108F0FCFD01212846FFF720FF37BD4149C8707047F0B50C46EB
:203C200089B0054620890026042844DB616802A800F090F8BDF80A20182A61DA2189101DC8
:203C4000814235D19DF80800C10736D56068071D9DF8090000F013FB04002CD026719DF877
:203C6000080001280BD0132821D12078042822D1BDF80A20394603A800F01AFA05E0BDF8AD
:203C80000A20394603A800F0BFF90646204600F017FB03A80190002100919DF80830207A1F
:203CA0003246294600F092FA204600F0DFFA16B1284600F032FB09B0F0BD122817D16168CF
:203CC000091D03A800F0D6F90600F0D1144CA0890028ECD09DF80900009003A901919DF81F
:203CE0000830A07B0022294600F070FADFE79DF80910ADF800606A462846FFF757FED6E7E7
:203D000017210120ADF80210ADF800006A469DF809102846FFF74AFECDE70000D0450020FB
:203D2000684300209C43002010B504464FF6FE7084420ED0012906D002290AD101212046C5
:203D400000F033FC28B92046BDE81040002100F0E5BA10BD0A7802704A7842708A78C978E0
:203D600002EB0122428070472DE9FC410D4616461F4609990A9A044601AB00F050FA804617
:203D800008BB0199089808703346DFF818060178491CCAB2002A06BF012101220A460170F1
:203DA000019802710097204601990A79294600F00DF8804620B901981E2100F076FA02E0C0
:203DC000019800F053FA4046BDE8F6812DE9F041054684B00E4617469846172000F0F0FA05
:203DE000040024D00A9818B10A9A4146201D9047010A2670E1706770A0700521ADF800106D
:203E0000001DADF808000194DFF89C15087800286946284602D000F05AF801E000F00CF80D
:203E20000546280004D0204608F0ECFC00E01325284604B0BDE8F08110B50C88DFF86C25E4
:203E40000C235C431319303B5A6832B94C685C60098958811981002010BD162010BD80B5B6
:203E6000052000F00FF858B9062000F00BF838B9042000F007F818B9072000F003F800B164
:203E8000012002BD02460C2110B5DFF8200551430844A0F1300484B06168A9B1DFF80835FC
:203EA000187878B1ADF80020019169462089ADF80800608900F00BF810B1606808F0A2FCF2
:203EC00000206060012000E0002004B010BD70B50D460446288920B1DFF8D42411888142F1
:203EE00001D21B2070BD6868042106F07FFB0646288930702889000A70702988B170288868
:203F0000000AF0704FF6FE702D892D1D844213D10C2006F08DFB68B190210170448002210E
:203F20000171C58086600146DFF88804007808F0BBFA17E0132070BD3346AAB20021204662
:203F400009F06CF8010007D002280DD007280FD012280BD01F280CD1DFF84C14087808B16E
:203F6000401E0870002070BD142070BD022070BD042070BD70B50446002060600879022823
:203F800021D1CA88042A1EDB886801784378C57801EB0321837889B20E1D03EB05239642F6
:203FA0009BB210D1052B18BF042B03D0062B18BF072B08D1218123806FF0030106F016FB08
:203FC0006060002070BD012070BD0B880246022013700B881B0A53700B88012B06D1488825
:203FE00090704888000AD07004207047022B0AD1488890704888000AD07088881071888839
:20400000000A507106207047022A1BDB0A784B7802EB032202800288012A05D18A78C9782F
:2040200002EB012242800BE0022A09D18A78CB7802EB032242800A79497902EB012282804D
:2040400000207047012070470A8802700A88120A42704A8882704A88120AC2708A880271E4
:204060008A88120A4271CA888271C988090AC17108207047082A18D10A784B7802EB032233
:20408000028011F8022F4B7802EB0322428011F8022F4B7802EB0322828011F8022F4978C1
:2040A00002EB0122C280002070470120704705E0022A00D10EE00120704700BF0A88027094
:2040C0000988090A417002207047022A00D101E0012070470A78497802EB01220280002007
:2040E000704710B54A8800F8012B04234A88120A00F8012B0C8800F8014B0C88240A00F883
:20410000014B0A8872B94A88022A04D1496808F032FE082306E0032A04D10822091D06F091
:204120007BFA0C23184610BD10B5042A04460B4628DB1878597800EB01206080981C0178A5
:20414000437801EB03212180831C2088A0B96088022807D1082A15D10421184608F0F4FDE5
:2041600060600DE0032808BF0C2A0BD108221946201D06F051FA03E0012808BF042A01D1B4
:20418000002010BD012010BDF8B506460F461546102006F04DFA040016D0A02121700020D2
:2041A000607067802DB10C222946201D06F034FA04E00C220021201D06F02CFA2146304603
:2041C00008F072F90020F2BD0120F2BD2DE9F04180460E4617461D46202006F029FA04005F
:2041E0001BD0A221217067706680069820716571079830B10146182204F1080006F00CFAC4
:2042000005E01822002104F1080006F003FA21464046BDE8F04108F047B9BDE8F081F8B5F0
:204220001C0005460E461DD0012100F0BEF9B8B161480278002300E05B1CDBB2934213DAB8
:204240005E490F6807EB031148880028F4D1002240330A704B8039B1CD800E722160F2BDBC
:204260001420F2BD0120F2BD1520F2BD10B504461022002106F0CEF9FF20607210BD10B505
:204280000246002300E05B1C4B4801788B420ADA4A490C6804EB031041880029F3D0047964
:2042A0009442F0D110BD002010BD0A464FF47A714A4300F1090301460FF2150008F0E2BDB1
:2042C00010B50446607A08F063FDFF21617210BD10B504001CBF6088002807D017212046B4
:2042E00000F005F82046BDE81040BFE710BD1CB504460A46207804280ED1002101910091B1
:204300001323E188207AFFF761FFE18802B0BDE81040122205202FE013BD072170B504462F
:20432000002541BB19E025490868EDB200EB0516307800281CBF707AFF280DD0F188A142EB
:204340000AD108F025FDFF20707214213046FFF7CEFF3046FFF78AFF6D1C17490A78E8B2FF
:204360009042E0D30425FF222146284600F004F86D1C082DF7DB70BD38B50C230B4C5843E2
:204380002044A0F1300465898D420AD1606840B1FF2A1CBF0178914203D108F033FA00203A
:2043A000606031BD98430020D245002068430020BE450020D0450020D1450020D44500208B
:2043C00080B5001D80B208F02DFE28B1BDE804406FF0030106F00AB902BD7047002070470B
:2043E00038B5B94C00220021204604F004FB20783025684308F0AEF96060B8B100210AE0C4
:2044000005FB01F202444FF6FF735380491C00231371D362C9B222789142F1DB00200021A3
:2044200004EB8002401C0C289160F9DB31BD0022A54901EB8203996829B1521CD2B20C2A44
:20444000F6DB132070479860002070472DE9F04106460D4617469846284600F079F808B129
:20446000112024E04FF6FF7000F072F804001DD084F8058006220699A01D06F0CDF80622A0
:20448000002104F10C0006F0C5F86580277126700020E06200210898A0740998A0820A9898
:2044A000E082284600F0FFF8002000E01520BDE8F08110B500F04CF8040012D06088012111
:2044C00000F0F1F8E06A08B108F08CF930220021204606F09FF84FF6FF70608000202071D8
:2044E00010BD022010BD38B50C46154600F030F860B10179002D14BF0C4321EA04040471EC
:204500000221408800F0CFF8002032BD152032BD38B50D4600F01CF8040017D02079287066
:20452000062260796870A11DA81C06F075F8062204F10C0105F1080006F06EF8A07CA87302
:20454000A08A2882E08A6882002032BD012032BD30B500225C4B054600E0521C1C78D0B2B7
:20456000A04208D25868D2B23024544320444488AC42F2D130BD002030BDF0B501465248EF
:204580004368047800224FF6FF7700E0521CA24209DA3025554358194688BE42F6D05D5D56
:2045A0008D42F3D1F0BD0020F0BD10B50C464FF6FE71884206D0FFF7CBFF00281CBF007947
:2045C000204201D0012010BD002010BD80B5FFF7BFFF00B1807C02BD10B5002000223A4BEC
:2045E00008E05968D2B2302454430C44217901B1401C521C1C78D1B2A142F2D3C0B210BD3F
:2046000031480078704710B50C46FFF7A1FF00281CBFC18AA14202D0C482002010BD0120EE
:2046200010BD80B5FFF794FF00B1C08A02BD70B505460C461646FFF78BFF28B94FF6FE7003
:20464000854218D0142070BD0179C06A28B9CA0609D5C90609D40F2070BD01F01202102AD0
:20466000F7D1002EF5D0052070BD20B1807EA04201D20C2070BD002070BD70B5040011D0F9
:204680000026114D0BE068683021714308444FF6FF724188914218BFA047761CF6B22878A0
:2046A0008642F0DB70BD70B504460D460026064800EB8600826812B1294620469047761CA8
:2046C0000C2EF4DB70BD00009C43002038B505000C4618BF002C01D1022032BD03216846A9
:2046E00000F03FF900F030F822466946284600F07AF8050004D103226946E01C05F08CFF69
:20470000284632BD30B505000C4618BF002C83B001D102203EBD0322E11C684605F07CFF9B
:2047200000F012F801AA6946284600F05CF8010009D10322214601A806F09AF8012801D1E0
:2047400000203EBD01203EBD9DF8021001F03F0141F040018DF80210704730B50D4600282A
:2047600018BF002D8DB0144600D00CB9022011E00146102200F034F81022294604A807F01D
:20478000A1F800F05EF80546102208A9204607F099F828460DB030BD80B52020FBF798FB0C
:2047A00038B1024606480078BDE80840012107F01BBF01BD02480078012107F02FBF00009B
:2047C0009943002070B58CB000F020F800F006F8280A8DF81E008DF81F50B2E01022214692
:2047E000684607F06FB870B58CB000F00FF8FFF7F5FF032229460DF11D0007F063F800F0BA
:2048000020F8044603220DF12D019FE004460D46164630220021684605F0FCBE70B58CB03C
:20482000FFF7F4FFFFF7DAFF00F096F800F009F89DF82F109DF82E2001EB022131800CB01E
:2048400070BD6846D8E02DE9F14F94B0884692461E9C1F9F209D219EDDF888909B46302271
:20486000002108A805F0D6FE1499102208A807F029F810220021684605F0CCFE0722514677
:20488000FFF7AEFF072259460DF1070007F01AF8280018BF01208DF80E00200018BF0120D4
:2048A0008DF80F001022002104A805F0B3FE0622394605A807F006F8062231460DF11A00BF
:2048C00007F000F8102241460CA806F0FBFF69460CA800F01BF808A800F08EF80446102284
:2048E00010A90CA805F098FE04A90CA800F00EF808A800F081F80546102210A9484606F096
:20490000E1FF45EA040015B0BDE8F08F10B51022037811F8014B6340521E00F8013BF7D1C5
:2049200010BD70B50C468CB0154601461E461022FFF756FF0822214604A806F0C3FF00F08F
:204940000BF8FFF77EFF0446102208A9304606F0B9FF20460CB070BD0822294606A806F004
:20496000B1BF70B504460D4600260BE008F0D6F9F6B2010AA155761CF1B2A94202D2F6B2E8
:20498000A055761CF0B2A842F0D370BD10B501688A089300CC0801F0030003F00403E2001D
:2049A00018430B0902F008021C01104304F010042043490940EA4110C0B210BD02689208A1
:2049C00041EA82028B0822F0040203F0010342EA8302CB0822F0080203F0010342EAC302FE
:2049E0000B0922F0F00203F0010342EA0312490942EA41120260704700F1200200F1100168
:204A000008F014BB2DE9F0470600144614BF002C022088B0894640D009F10407B8B207F084
:204A200099FE050037D0FBF7A0FB80464A463146281D06F047FF4FEA18264FEA184985F86A
:204A40000380AE7085F801904FEA186A85F800A0FBF788FB0146102203A806F033FF0820E6
:204A6000009001ABBAB2294603A800F086F807000DD184F80080667084F8029084F803A022
:204A8000082201A9201D06F01DFFFBF772FB284607F0A8FE00E01327384608B0BDE8F0871D
:204AA0002DE9F0478AB0824614001CBF129800280E46984618D05046FFF74AFD050008BF2D
:204AC000142057D0129802780146487802EB0022887802EB0042C87802EB0069A86A4845DD
:204AE00004D310F1010F01D0022043E026B12879810758BF01203DD50822002101A805F085
:204B000089FD08F10407B8B207F024FE060008BF13202FD042462146301D06F0D3FE1299DB
:204B20000422304606F0CEFE102205F1180105A806F0C8FE0820009001ABBAB2314605A879
:204B400000F01BF8040011D1082201A903A806F0B9FE1298011D082203A805F089FE0128FE
:204B600011BF012449465046FBF75CFD304607F039FE20460AB0BDE8F0872DE9FA4F8346C8
:204B800085B0144600F0DEF8804600F0DBF8B8F1000F814608BF132600F0C680B9F1000FC9
:204BA00008BF132600F0BD8000F0CCF8064600F0C9F805460EB9132735E00DB913272FE0A7
:204BC0001022002105F026FD324629465846FFF717FF070024D130780FF29C1A010604D49F
:204BE0004146304600F0BBF808E02946304600F0B6F842465146284600F0A7F898F80000FE
:204C0000010604D44946404600F0A9F808E02946404600F0A4F84A465146284600F095F894
:204C2000304607F0DFFD15B1284607F0DBFD3E0077D100F087F8054600F084F807460DB969
:204C400013266AE00FB9132664E0224602F10F00C11000EB11700003001402D100240021B6
:204C600009E0D10802EB11710909A2EB0113591E8941C90F441EDDF814A0200180B20AEB04
:204C8000000329B13A464146184600F05EF818E0D00802EB10700009A2EB00120020D2B203
:204CA0009042B8BF195C02DB0CBF802100210DF80010401C1028F3DB3A464946684600F0A8
:204CC00044F810220021284605F0A4FC3046CDF814A0002636B2A6420DDA01000BD10598FC
:204CE000310189B201446A46284600F02EF800F025F8761CEEE706000CD16A4639462846DA
:204D000000F023F800F01AF80646109A0698294605F082FC284607F065FD17B1384607F00C
:204D200061FD404607F05EFDB9F1000F1CBF484607F058FD304607B0BDE8F08F2A4669465F
:204D400058465DE6102007F005BD30B50023C45CCD5C6C40D4545B1C102BF8DB30BD10B52D
:204D600000220F23C45C42EA4402CA54C25CD2095B1EF7D510BD0000000000000000000024
:204D800000000000000000872DE9F047DFF86C77064638688A4690461C464FF00009002524
:204DA00008B1112034E06CB12120FBF791F894F89C10814206D32220FBF78AF894F89C105A
:204DC000884201D2022023E0702007F0C3FC386008B913201CE07022002105F01BFC3968E3
:204DE0004D7038680670386880F802A03868A0F806808466C56605711EB100F0DAF9814684
:204E00004D463968012048700DB100F009FB4846BDE8F08738B5DFF8E4560346286800242E
:204E200040B10279022A18BF032A05D0042A18BF062A01D0122032BDC2888A4201D00220D1
:204E400032BD10221946083005F0E6FB286810212830FFF786FD286800F1180200F128017D
:204E6000083000F01DF929684A78087820B1032A0ED102224A7008E0042A02D102204870A3
:204E800006E0032A04D10520487000F0A8F90446204632BDDFF8641688607047DFF85C16E4
:204EA00048607047DFF85426126802B9704780B5D288824208BF012904D100F0B1FABDE8FD
:204EC000014031E301BD1720CFE2000070B586B0044600208DF80000A0680578691E0A294E
:204EE0003BD8DFE801F006060F13171B1F23272B2F0001A900F0D1FE122826D106218DF87E
:204F0000001022E001A900F03BFF1EE001A900F053FF1AE001A900F066FF16E001A900F038
:204F20007AFF12E001A900F093FF0EE001A900F0BCFF0AE001A900F0C3FF06E001A900F0D1
:204F4000D6FF02E001A900F0EBFFE0B96088FFF7FFFA052628B9082613E007208DF80000CD
:204F600014E0827CDFF89415082A0CBF8968496800291CBF0B68002B03D001AA29469847B2
:204F800006468DF800609DF8000020B16088694600F007F803E00B2D18BFFFF7FDFB06B05E
:204FA00070BD38B50C46DFF858352246022100F0C5FF0546207800F058FA284632BD70B53B
:204FC000DFF838450646206800280D4640D0C188B1423DD14178062931D1017819B3816EB6
:204FE000D1F89830C26ED90705D5117BCD0702D5072242701DE0C3F3400100291FBFD168F0
:20500000C1F340010029092109D1C3F3800100291EBFD168C1F38001002902D00B214170EB
:2050200007E0A06800E0606800281EBF40680028804720684178122918D1002005E0112999
:2050400006D1280018BF3225284600F00EFA0DE0280007D13046FFF77BFA18B1017941F07B
:205060001001017131462846FBF7CEFC012070BD10B5DFF88844206888B1007800280CBF2A
:205080006068A06800281EBF40680028804720684178122903D1BDE810400020E5E110BDAC
:2050A0002DE9F34FDFF8546430688DB0904608B9122041E0C088FFF74BFA040008BF1420C8
:2050C0003AD009A800F0FAF93168087878B1D1F86CA0FBF75BF8050018BF01250020FBF7C2
:2050E00058F8677909AE814604F1060B0EE0CE6EFBF74CF8070018BF01270020FBF749F843
:2051000065790DF1240A834604F1060907A9504600F06CFD05A9304600F064FDCDF810804F
:20512000CDF80CB00297CDF8049000950E990D9805AB07AAFFF787FB0FB0BDE8F08F70B53A
:20514000DFF8B8530446686886B000281CBF006800280E461CD031788DF8041070788DF89B
:20516000050002A8B178FFF729FCF1786B688DF80C1001AA7068049001211D682046A8474C
:20518000010005D08DF8000069466088FFF709FF06B070BD38B5DFF86443A468002C1CBFBE
:2051A000A468002C03D0049D0095A04732BD022032BD1FB5D14C216871B1684600F07EF916
:2051C0002168C8880978002914BFCE4BCE4B6A46072100F0B3FE00E0012004B010BD1FB578
:2051E000C64C2368102203F11801684605F014FA2068C64B0AE01FB5C04C2368102203F10E
:205200002801684605F008FA2068C14BC0886A46112100F093FE04B010BDF8B5B74F044603
:205220003868C16E0025002940F0C680102007F091FA39680028C86600F0BC808E6E1022D8
:20524000214605F0E9F93A681078002840F08880D16ED6F8980011F80C7F00F0010307F062
:205260000107BB4218BF0023400843EA4000C6F89800C0F340030F68C7F34007BB4206BFF4
:20528000430803F00103002320F0020040EA4300C6F89800C0F380030F68C7F38007BB42E9
:2052A00006BF830803F00103002320F0040040EA8300C6F89800C0F3C0030F68C7F3C007FF
:2052C000BB4206BFC30803F00103002320F0080040EAC300C6F89800C0F300230F68C7F3C5
:2052E0000027BB4206BF030A03F00103002320F4807040EA0320C6F89800C0F340230F686A
:20530000C7F34027BB4206BF430A03F00103002320F4007040EA4320C6F89800C0F3802386
:205320000F68C7F38027BB4206BF830A03F00103002320F4806040EA8320C6F89800C0F362
:20534000C0230968C1F3C0218B4206BFC10A01F00101002120F4006040EAC120C6F898001E
:20536000617800291CBF7078002802D00521117123E06068C0F3800038B996F8950010F0B4
:20538000040008BF012011D012D01078002819BF30782178317820780428D8BF042907DC81
:2053A0000FF2B01301EB81011944085C107104E0182502E0132500E011252846F2BD0A46BB
:2053C000544B15E010B586B00446ADF800101046014608220DF1020005F01EF94E4B6A4623
:2053E0000B21204600F0AAFD06B010BD0A464B4B112100F0A3BD1CB58DF800100446104693
:20540000014606220DF1010005F006F9444B6A460821204600F092FD13BD0A46414BE7E763
:2054200010B5364C2068E0B1C06E08B107F0DAF92068806D08B107F0D5F92068C06D08B1FA
:2054400007F0D0F92068006E08B107F0CBF92068406E08B107F0C6F9206807F0C3F9002022
:205460002060BDE81040FFF7A5B9244900B5096885B081B14A6E03920A6E0292CA6D019246
:205480008A6D0092CB78CA880978FBF747FB05B05DF804EBC4E705B000BD18490968102021
:2054A00000291CBFCA6E002A07D0896E29B191F89C00117A814238BF0846704770B50546FF
:2054C0000E48006800281CBF846E002C0FD02078287004F1950660786870281D3178FFF7BA
:2054E0006DFAF1792972D4F89800E86070BD2846BDE870401022002105F08CB8D4430020E1
:20550000CF5D0100E55B0100ED5B01006F5D0100975D0100055E01002D5E01007B5E010048
:205520008D5E0100DD5E010010B52620FAF7D0FC0446C0B268B1022007F00CF948B110215E
:205540000170002141700146E0B2BDE8104006F0ABBF10BD010102010201010201020303F9
:205560000401030101010101030302010300000080B5DFF8780501784A074CBFDFF8700568
:205580000020FFF78BFC002002BDF0B589B005460E46174610220021684605F03BF8DFF8B5
:2055A0005445206800282AD0C188A94204BF0178002924D1417806290DD100F1480200F128
:2055C000280104AB0830FFF7ACF9C0B9FFF765FF024604A924E0806D88B1028A112927D170
:2055E000974209D100F033F8012805D1FFF755FF02462068816D13E03220FFF736FF2846F8
:20560000FEF7A6FF04001CBFE06A002819D0018A8F4216D100F01BF8012812D1E16A8A7E11
:20562000684604F0F9FF6946284607F003FD0BE09742E4D100F00BF80128E0D12068816D00
:20564000EDE7284607F0FAFC012009B0F0BD00F112010822304605F00BB90000F0B5DFF8BB
:2056600094640746306885B01546002488B901290ED1281DFFF78AF9E9680291297A019178
:2056800000906B782A7879880020FBF7E6F90020E5E0C2887B889A4218BF0820F8D10278B3
:2056A000012A08BF0720F3D0491E092964D8DFE801F00563142ED24C658C9EBC2846FFF70A
:2056C000ACFD30B9DFF830040078042106F036FFC4E0182833D10324C0E0102229463830AD
:2056E00004F09AFF30684178042902D103224270B4E000F1180200F128010830FFF7D0FC42
:20570000FFF76DFD00B10824316805208BE010222946483004F080FF306800F148016A4615
:205720000830FFF7BDFC306800F138011022684605F09EF8012806D1FFF75DFD00287CD190
:20574000316806206FE0042488E041780C2913D1C06D20B91C2006F0FDFF3168C865306847
:20576000C06D48B100F07DF8FFF797FE3168CA6D90760D20316856E007246FE0C36D002B6C
:20578000FAD040780D28F7D1298819820822A91C03F1120004F040FF3168886ED0F8982007
:2057A000C2F3402000281FBFC86EC068C0F34020002818BF0E2036D1C2F38020002848D094
:2057C000C86EC068C0F380202BE041780E29D3D1006E20B9172006F0BDFF316808663068AA
:2057E000006E08B100F03DF831680F201BE042780F2AC1D1006E0622691C113004F00CFFBA
:2058000030682978026E41F0020111743168886ED0F89820C2F38020D8B1C86EC268C2F324
:205820008020B0B11020487018E0406E38B9142006F090FF3168486608B908240EE0306875
:20584000406E30B100F00DF831684A6E4FF0FF301061002000E02878FFF707FE204605B0DE
:20586000F0BD1022294604F0D7BE10B5FFF7A1FC002842D19F4C2068816E91F89520D10746
:2058800009D5C16E0A7902F00302012A03D1C17841F00101C17020680179022904D00329B8
:2058A00018BF04290AD10121C0880022FBF701F900F024F804202168487010BD012918BF52
:2058C00005291AD10221417020680179012905D110220021083004F09DFE07E0816E1022B7
:2058E000891C083004F098FE00F008F810212068BDE810402830FFF734B810BD2068C178DB
:2059000041F00401C17070472DE9F041794D2B681878002840F0E7805E78D3F86880DF6EA4
